{
  "address": "0x5da8e01E6Cc14FEd533c73181Dd631e0C69129b7",
  "abi": [
    {
      "inputs": [
        {
          "components": [
            {
              "internalType": "address",
              "name": "factory",
              "type": "address"
            },
            {
              "internalType": "string",
              "name": "name",
              "type": "string"
            },
            {
              "internalType": "string",
              "name": "symbol",
              "type": "string"
            },
            {
              "internalType": "contract IERC20[]",
              "name": "tokens",
              "type": "address[]"
            },
            {
              "internalType": "uint256[]",
              "name": "weights",
              "type": "uint256[]"
            },
            {
              "internalType": "uint256",
              "name": "swapFeePercentage",
              "type": "uint256"
            },
            {
              "internalType": "address",
              "name": "guardian",
              "type": "address"
            },
            {
              "internalType": "address",
              "name": "validator",
              "type": "address"
            },
            {
              "internalType": "uint32",
              "name": "noticePeriod",
              "type": "uint32"
            },
            {
              "internalType": "uint256",
              "name": "managementFee",
              "type": "uint256"
            },
            {
              "internalType": "address",
              "name": "merkleOrchard",
              "type": "address"
            },
            {
              "internalType": "string",
              "name": "description",
              "type": "string"
            }
          ],
          "internalType": "struct IAeraVaultV1.NewVaultParams",
          "name": "vaultParams",
          "type": "tuple"
        }
      ],
      "stateMutability": "nonpayable",
      "type": "constructor"
    },
    {
      "inputs": [
        {
          "internalType": "address",
          "name": "token",
          "type": "address"
        },
        {
          "internalType": "uint256",
          "name": "amount",
          "type": "uint256"
        },
        {
          "internalType": "uint256",
          "name": "available",
          "type": "uint256"
        }
      ],
      "name": "Aera__AmountExceedAvailable",
      "type": "error"
    },
    {
      "inputs": [
        {
          "internalType": "uint256",
          "name": "actual",
          "type": "uint256"
        },
        {
          "internalType": "uint256",
          "name": "min",
          "type": "uint256"
        }
      ],
      "name": "Aera__AmountIsBelowMin",
      "type": "error"
    },
    {
      "inputs": [],
      "name": "Aera__BalanceChangedInCurrentBlock",
      "type": "error"
    },
    {
      "inputs": [],
      "name": "Aera__CallerIsNotGuardian",
      "type": "error"
    },
    {
      "inputs": [],
      "name": "Aera__CallerIsNotOwnerOrGuardian",
      "type": "error"
    },
    {
      "inputs": [],
      "name": "Aera__CannotSetSwapFeeBeforeCooldown",
      "type": "error"
    },
    {
      "inputs": [],
      "name": "Aera__CannotSweepPoolToken",
      "type": "error"
    },
    {
      "inputs": [],
      "name": "Aera__DescriptionIsEmpty",
      "type": "error"
    },
    {
      "inputs": [
        {
          "internalType": "address",
          "name": "actual",
          "type": "address"
        },
        {
          "internalType": "address",
          "name": "sortedToken",
          "type": "address"
        },
        {
          "internalType": "uint256",
          "name": "index",
          "type": "uint256"
        }
      ],
      "name": "Aera__DifferentTokensInPosition",
      "type": "error"
    },
    {
      "inputs": [],
      "name": "Aera__FinalizationNotInitiated",
      "type": "error"
    },
    {
      "inputs": [
        {
          "internalType": "address",
          "name": "newGuardian",
          "type": "address"
        }
      ],
      "name": "Aera__GuardianIsOwner",
      "type": "error"
    },
    {
      "inputs": [],
      "name": "Aera__GuardianIsZeroAddress",
      "type": "error"
    },
    {
      "inputs": [
        {
          "internalType": "uint256",
          "name": "actual",
          "type": "uint256"
        },
        {
          "internalType": "uint256",
          "name": "max",
          "type": "uint256"
        }
      ],
      "name": "Aera__ManagementFeeIsAboveMax",
      "type": "error"
    },
    {
      "inputs": [
        {
          "internalType": "address",
          "name": "caller",
          "type": "address"
        }
      ],
      "name": "Aera__NoAvailableFeeForCaller",
      "type": "error"
    },
    {
      "inputs": [],
      "name": "Aera__NoPendingOwnershipTransfer",
      "type": "error"
    },
    {
      "inputs": [],
      "name": "Aera__NotPendingOwner",
      "type": "error"
    },
    {
      "inputs": [
        {
          "internalType": "uint256",
          "name": "actual",
          "type": "uint256"
        },
        {
          "internalType": "uint256",
          "name": "max",
          "type": "uint256"
        }
      ],
      "name": "Aera__NoticePeriodIsAboveMax",
      "type": "error"
    },
    {
      "inputs": [
        {
          "internalType": "uint256",
          "name": "noticeTimeoutAt",
          "type": "uint256"
        }
      ],
      "name": "Aera__NoticeTimeoutNotElapsed",
      "type": "error"
    },
    {
      "inputs": [],
      "name": "Aera__OwnerIsZeroAddress",
      "type": "error"
    },
    {
      "inputs": [],
      "name": "Aera__PoolSwapIsAlreadyEnabled",
      "type": "error"
    },
    {
      "inputs": [
        {
          "internalType": "uint256",
          "name": "actual",
          "type": "uint256"
        },
        {
          "internalType": "uint256",
          "name": "max",
          "type": "uint256"
        }
      ],
      "name": "Aera__SwapFeePercentageChangeIsAboveMax",
      "type": "error"
    },
    {
      "inputs": [
        {
          "internalType": "uint256",
          "name": "numTokens",
          "type": "uint256"
        },
        {
          "internalType": "uint256",
          "name": "numAllowances",
          "type": "uint256"
        }
      ],
      "name": "Aera__ValidatorIsNotMatched",
      "type": "error"
    },
    {
      "inputs": [
        {
          "internalType": "address",
          "name": "validator",
          "type": "address"
        }
      ],
      "name": "Aera__ValidatorIsNotValid",
      "type": "error"
    },
    {
      "inputs": [
        {
          "internalType": "uint256",
          "name": "numTokens",
          "type": "uint256"
        },
        {
          "internalType": "uint256",
          "name": "numValues",
          "type": "uint256"
        }
      ],
      "name": "Aera__ValueLengthIsNotSame",
      "type": "error"
    },
    {
      "inputs": [],
      "name": "Aera__VaultIsAlreadyFinalized",
      "type": "error"
    },
    {
      "inputs": [],
      "name": "Aera__VaultIsAlreadyInitialized",
      "type": "error"
    },
    {
      "inputs": [],
      "name": "Aera__VaultIsFinalizing",
      "type": "error"
    },
    {
      "inputs": [],
      "name": "Aera__VaultIsNotRenounceable",
      "type": "error"
    },
    {
      "inputs": [],
      "name": "Aera__VaultNotInitialized",
      "type": "error"
    },
    {
      "inputs": [
        {
          "internalType": "uint256",
          "name": "actual",
          "type": "uint256"
        },
        {
          "internalType": "uint256",
          "name": "min",
          "type": "uint256"
        }
      ],
      "name": "Aera__WeightChangeDurationIsBelowMin",
      "type": "error"
    },
    {
      "inputs": [],
      "name": "Aera__WeightChangeEndBeforeStart",
      "type": "error"
    },
    {
      "inputs": [
        {
          "internalType": "uint256",
          "name": "actual",
          "type": "uint256"
        },
        {
          "internalType": "uint256",
          "name": "max",
          "type": "uint256"
        }
      ],
      "name": "Aera__WeightChangeEndTimeIsAboveMax",
      "type": "error"
    },
    {
      "inputs": [
        {
          "internalType": "address",
          "name": "token",
          "type": "address"
        },
        {
          "internalType": "uint256",
          "name": "actual",
          "type": "uint256"
        },
        {
          "internalType": "uint256",
          "name": "max",
          "type": "uint256"
        }
      ],
      "name": "Aera__WeightChangeRatioIsAboveMax",
      "type": "error"
    },
    {
      "inputs": [
        {
          "internalType": "uint256",
          "name": "actual",
          "type": "uint256"
        },
        {
          "internalType": "uint256",
          "name": "max",
          "type": "uint256"
        }
      ],
      "name": "Aera__WeightChangeStartTimeIsAboveMax",
      "type": "error"
    },
    {
      "inputs": [
        {
          "internalType": "uint256",
          "name": "actual",
          "type": "uint256"
        },
        {
          "internalType": "uint256",
          "name": "max",
          "type": "uint256"
        }
      ],
      "name": "Aera__WeightIsAboveMax",
      "type": "error"
    },
    {
      "inputs": [
        {
          "internalType": "uint256",
          "name": "actual",
          "type": "uint256"
        },
        {
          "internalType": "uint256",
          "name": "min",
          "type": "uint256"
        }
      ],
      "name": "Aera__WeightIsBelowMin",
      "type": "error"
    },
    {
      "anonymous": false,
      "inputs": [
        {
          "indexed": false,
          "internalType": "uint256[]",
          "name": "weights",
          "type": "uint256[]"
        }
      ],
      "name": "CancelWeightUpdates",
      "type": "event"
    },
    {
      "anonymous": false,
      "inputs": [
        {
          "indexed": true,
          "internalType": "address",
          "name": "factory",
          "type": "address"
        },
        {
          "indexed": false,
          "internalType": "string",
          "name": "name",
          "type": "string"
        },
        {
          "indexed": false,
          "internalType": "string",
          "name": "symbol",
          "type": "string"
        },
        {
          "indexed": false,
          "internalType": "contract IERC20[]",
          "name": "tokens",
          "type": "address[]"
        },
        {
          "indexed": false,
          "internalType": "uint256[]",
          "name": "weights",
          "type": "uint256[]"
        },
        {
          "indexed": false,
          "internalType": "uint256",
          "name": "swapFeePercentage",
          "type": "uint256"
        },
        {
          "indexed": true,
          "internalType": "address",
          "name": "guardian",
          "type": "address"
        },
        {
          "indexed": true,
          "internalType": "address",
          "name": "validator",
          "type": "address"
        },
        {
          "indexed": false,
          "internalType": "uint256",
          "name": "noticePeriod",
          "type": "uint256"
        },
        {
          "indexed": false,
          "internalType": "uint256",
          "name": "managementFee",
          "type": "uint256"
        },
        {
          "indexed": false,
          "internalType": "address",
          "name": "merkleOrchard",
          "type": "address"
        },
        {
          "indexed": false,
          "internalType": "string",
          "name": "description",
          "type": "string"
        }
      ],
      "name": "Created",
      "type": "event"
    },
    {
      "anonymous": false,
      "inputs": [
        {
          "indexed": false,
          "internalType": "uint256[]",
          "name": "requestedAmounts",
          "type": "uint256[]"
        },
        {
          "indexed": false,
          "internalType": "uint256[]",
          "name": "amounts",
          "type": "uint256[]"
        },
        {
          "indexed": false,
          "internalType": "uint256[]",
          "name": "weights",
          "type": "uint256[]"
        }
      ],
      "name": "Deposit",
      "type": "event"
    },
    {
      "anonymous": false,
      "inputs": [
        {
          "indexed": true,
          "internalType": "address",
          "name": "guardian",
          "type": "address"
        },
        {
          "indexed": false,
          "internalType": "uint256[]",
          "name": "amounts",
          "type": "uint256[]"
        }
      ],
      "name": "DistributeGuardianFees",
      "type": "event"
    },
    {
      "anonymous": false,
      "inputs": [
        {
          "indexed": false,
          "internalType": "uint256",
          "name": "time",
          "type": "uint256"
        },
        {
          "indexed": false,
          "internalType": "uint256[]",
          "name": "weights",
          "type": "uint256[]"
        }
      ],
      "name": "EnabledTradingWithWeights",
      "type": "event"
    },
    {
      "anonymous": false,
      "inputs": [
        {
          "indexed": false,
          "internalType": "uint256",
          "name": "noticeTimeoutAt",
          "type": "uint256"
        }
      ],
      "name": "FinalizationInitiated",
      "type": "event"
    },
    {
      "anonymous": false,
      "inputs": [
        {
          "indexed": true,
          "internalType": "address",
          "name": "caller",
          "type": "address"
        },
        {
          "indexed": false,
          "internalType": "uint256[]",
          "name": "amounts",
          "type": "uint256[]"
        }
      ],
      "name": "Finalized",
      "type": "event"
    },
    {
      "anonymous": false,
      "inputs": [
        {
          "indexed": true,
          "internalType": "address",
          "name": "previousGuardian",
          "type": "address"
        },
        {
          "indexed": true,
          "internalType": "address",
          "name": "guardian",
          "type": "address"
        }
      ],
      "name": "GuardianChanged",
      "type": "event"
    },
    {
      "anonymous": false,
      "inputs": [
        {
          "indexed": true,
          "internalType": "address",
          "name": "currentOwner",
          "type": "address"
        },
        {
          "indexed": true,
          "internalType": "address",
          "name": "canceledOwner",
          "type": "address"
        }
      ],
      "name": "OwnershipTransferCanceled",
      "type": "event"
    },
    {
      "anonymous": false,
      "inputs": [
        {
          "indexed": true,
          "internalType": "address",
          "name": "currentOwner",
          "type": "address"
        },
        {
          "indexed": true,
          "internalType": "address",
          "name": "pendingOwner",
          "type": "address"
        }
      ],
      "name": "OwnershipTransferOffered",
      "type": "event"
    },
    {
      "anonymous": false,
      "inputs": [
        {
          "indexed": true,
          "internalType": "address",
          "name": "previousOwner",
          "type": "address"
        },
        {
          "indexed": true,
          "internalType": "address",
          "name": "newOwner",
          "type": "address"
        }
      ],
      "name": "OwnershipTransferred",
      "type": "event"
    },
    {
      "anonymous": false,
      "inputs": [
        {
          "indexed": false,
          "internalType": "bool",
          "name": "swapEnabled",
          "type": "bool"
        }
      ],
      "name": "SetSwapEnabled",
      "type": "event"
    },
    {
      "anonymous": false,
      "inputs": [
        {
          "indexed": false,
          "internalType": "uint256",
          "name": "swapFee",
          "type": "uint256"
        }
      ],
      "name": "SetSwapFee",
      "type": "event"
    },
    {
      "anonymous": false,
      "inputs": [
        {
          "indexed": false,
          "internalType": "uint256",
          "name": "startTime",
          "type": "uint256"
        },
        {
          "indexed": false,
          "internalType": "uint256",
          "name": "endTime",
          "type": "uint256"
        },
        {
          "indexed": false,
          "internalType": "uint256[]",
          "name": "weights",
          "type": "uint256[]"
        }
      ],
      "name": "UpdateWeightsGradually",
      "type": "event"
    },
    {
      "anonymous": false,
      "inputs": [
        {
          "indexed": false,
          "internalType": "uint256[]",
          "name": "requestedAmounts",
          "type": "uint256[]"
        },
        {
          "indexed": false,
          "internalType": "uint256[]",
          "name": "amounts",
          "type": "uint256[]"
        },
        {
          "indexed": false,
          "internalType": "uint256[]",
          "name": "allowances",
          "type": "uint256[]"
        },
        {
          "indexed": false,
          "internalType": "uint256[]",
          "name": "weights",
          "type": "uint256[]"
        }
      ],
      "name": "Withdraw",
      "type": "event"
    },
    {
      "inputs": [],
      "name": "acceptOwnership",
      "outputs": [],
      "stateMutability": "nonpayable",
      "type": "function"
    },
    {
      "inputs": [],
      "name": "bVault",
      "outputs": [
        {
          "internalType": "contract IBVault",
          "name": "",
          "type": "address"
        }
      ],
      "stateMutability": "view",
      "type": "function"
    },
    {
      "inputs": [],
      "name": "cancelOwnershipTransfer",
      "outputs": [],
      "stateMutability": "nonpayable",
      "type": "function"
    },
    {
      "inputs": [],
      "name": "cancelWeightUpdates",
      "outputs": [],
      "stateMutability": "nonpayable",
      "type": "function"
    },
    {
      "inputs": [],
      "name": "claimGuardianFees",
      "outputs": [],
      "stateMutability": "nonpayable",
      "type": "function"
    },
    {
      "inputs": [
        {
          "components": [
            {
              "internalType": "uint256",
              "name": "distributionId",
              "type": "uint256"
            },
            {
              "internalType": "uint256",
              "name": "balance",
              "type": "uint256"
            },
            {
              "internalType": "address",
              "name": "distributor",
              "type": "address"
            },
            {
              "internalType": "uint256",
              "name": "tokenIndex",
              "type": "uint256"
            },
            {
              "internalType": "bytes32[]",
              "name": "merkleProof",
              "type": "bytes32[]"
            }
          ],
          "internalType": "struct IBMerkleOrchard.Claim[]",
          "name": "claims",
          "type": "tuple[]"
        },
        {
          "internalType": "contract IERC20[]",
          "name": "tokens",
          "type": "address[]"
        }
      ],
      "name": "claimRewards",
      "outputs": [],
      "stateMutability": "nonpayable",
      "type": "function"
    },
    {
      "inputs": [
        {
          "components": [
            {
              "internalType": "contract IERC20",
              "name": "token",
              "type": "address"
            },
            {
              "internalType": "uint256",
              "name": "value",
              "type": "uint256"
            }
          ],
          "internalType": "struct IProtocolAPI.TokenValue[]",
          "name": "tokenWithAmount",
          "type": "tuple[]"
        }
      ],
      "name": "deposit",
      "outputs": [],
      "stateMutability": "nonpayable",
      "type": "function"
    },
    {
      "inputs": [
        {
          "components": [
            {
              "internalType": "contract IERC20",
              "name": "token",
              "type": "address"
            },
            {
              "internalType": "uint256",
              "name": "value",
              "type": "uint256"
            }
          ],
          "internalType": "struct IProtocolAPI.TokenValue[]",
          "name": "tokenWithAmount",
          "type": "tuple[]"
        }
      ],
      "name": "depositIfBalanceUnchanged",
      "outputs": [],
      "stateMutability": "nonpayable",
      "type": "function"
    },
    {
      "inputs": [],
      "name": "description",
      "outputs": [
        {
          "internalType": "string",
          "name": "",
          "type": "string"
        }
      ],
      "stateMutability": "view",
      "type": "function"
    },
    {
      "inputs": [],
      "name": "disableTrading",
      "outputs": [],
      "stateMutability": "nonpayable",
      "type": "function"
    },
    {
      "inputs": [],
      "name": "enableTradingRiskingArbitrage",
      "outputs": [],
      "stateMutability": "nonpayable",
      "type": "function"
    },
    {
      "inputs": [
        {
          "components": [
            {
              "internalType": "contract IERC20",
              "name": "token",
              "type": "address"
            },
            {
              "internalType": "uint256",
              "name": "value",
              "type": "uint256"
            }
          ],
          "internalType": "struct IProtocolAPI.TokenValue[]",
          "name": "tokenWithWeight",
          "type": "tuple[]"
        }
      ],
      "name": "enableTradingWithWeights",
      "outputs": [],
      "stateMutability": "nonpayable",
      "type": "function"
    },
    {
      "inputs": [],
      "name": "finalize",
      "outputs": [],
      "stateMutability": "nonpayable",
      "type": "function"
    },
    {
      "inputs": [],
      "name": "finalized",
      "outputs": [
        {
          "internalType": "bool",
          "name": "",
          "type": "bool"
        }
      ],
      "stateMutability": "view",
      "type": "function"
    },
    {
      "inputs": [],
      "name": "getHoldings",
      "outputs": [
        {
          "internalType": "uint256[]",
          "name": "amounts",
          "type": "uint256[]"
        }
      ],
      "stateMutability": "view",
      "type": "function"
    },
    {
      "inputs": [],
      "name": "getNormalizedWeights",
      "outputs": [
        {
          "internalType": "uint256[]",
          "name": "",
          "type": "uint256[]"
        }
      ],
      "stateMutability": "view",
      "type": "function"
    },
    {
      "inputs": [],
      "name": "getSwapFee",
      "outputs": [
        {
          "internalType": "uint256",
          "name": "",
          "type": "uint256"
        }
      ],
      "stateMutability": "view",
      "type": "function"
    },
    {
      "inputs": [],
      "name": "getTokens",
      "outputs": [
        {
          "internalType": "contract IERC20[]",
          "name": "tokens",
          "type": "address[]"
        }
      ],
      "stateMutability": "view",
      "type": "function"
    },
    {
      "inputs": [],
      "name": "getTokensData",
      "outputs": [
        {
          "internalType": "contract IERC20[]",
          "name": "",
          "type": "address[]"
        },
        {
          "internalType": "uint256[]",
          "name": "",
          "type": "uint256[]"
        },
        {
          "internalType": "uint256",
          "name": "",
          "type": "uint256"
        }
      ],
      "stateMutability": "view",
      "type": "function"
    },
    {
      "inputs": [],
      "name": "guardian",
      "outputs": [
        {
          "internalType": "address",
          "name": "",
          "type": "address"
        }
      ],
      "stateMutability": "view",
      "type": "function"
    },
    {
      "inputs": [
        {
          "internalType": "address",
          "name": "",
          "type": "address"
        },
        {
          "internalType": "uint256",
          "name": "",
          "type": "uint256"
        }
      ],
      "name": "guardiansFee",
      "outputs": [
        {
          "internalType": "uint256",
          "name": "",
          "type": "uint256"
        }
      ],
      "stateMutability": "view",
      "type": "function"
    },
    {
      "inputs": [
        {
          "internalType": "uint256",
          "name": "",
          "type": "uint256"
        }
      ],
      "name": "guardiansFeeTotal",
      "outputs": [
        {
          "internalType": "uint256",
          "name": "",
          "type": "uint256"
        }
      ],
      "stateMutability": "view",
      "type": "function"
    },
    {
      "inputs": [
        {
          "internalType": "uint256",
          "name": "index",
          "type": "uint256"
        }
      ],
      "name": "holding",
      "outputs": [
        {
          "internalType": "uint256",
          "name": "",
          "type": "uint256"
        }
      ],
      "stateMutability": "view",
      "type": "function"
    },
    {
      "inputs": [
        {
          "components": [
            {
              "internalType": "contract IERC20",
              "name": "token",
              "type": "address"
            },
            {
              "internalType": "uint256",
              "name": "value",
              "type": "uint256"
            }
          ],
          "internalType": "struct IProtocolAPI.TokenValue[]",
          "name": "tokenWithAmount",
          "type": "tuple[]"
        }
      ],
      "name": "initialDeposit",
      "outputs": [],
      "stateMutability": "nonpayable",
      "type": "function"
    },
    {
      "inputs": [],
      "name": "initialized",
      "outputs": [
        {
          "internalType": "bool",
          "name": "",
          "type": "bool"
        }
      ],
      "stateMutability": "view",
      "type": "function"
    },
    {
      "inputs": [],
      "name": "initiateFinalization",
      "outputs": [],
      "stateMutability": "nonpayable",
      "type": "function"
    },
    {
      "inputs": [],
      "name": "isSwapEnabled",
      "outputs": [
        {
          "internalType": "bool",
          "name": "",
          "type": "bool"
        }
      ],
      "stateMutability": "view",
      "type": "function"
    },
    {
      "inputs": [],
      "name": "lastFeeCheckpoint",
      "outputs": [
        {
          "internalType": "uint256",
          "name": "",
          "type": "uint256"
        }
      ],
      "stateMutability": "view",
      "type": "function"
    },
    {
      "inputs": [],
      "name": "lastSwapFeeCheckpoint",
      "outputs": [
        {
          "internalType": "uint256",
          "name": "",
          "type": "uint256"
        }
      ],
      "stateMutability": "view",
      "type": "function"
    },
    {
      "inputs": [],
      "name": "managementFee",
      "outputs": [
        {
          "internalType": "uint256",
          "name": "",
          "type": "uint256"
        }
      ],
      "stateMutability": "view",
      "type": "function"
    },
    {
      "inputs": [],
      "name": "merkleOrchard",
      "outputs": [
        {
          "internalType": "contract IBMerkleOrchard",
          "name": "",
          "type": "address"
        }
      ],
      "stateMutability": "view",
      "type": "function"
    },
    {
      "inputs": [],
      "name": "noticePeriod",
      "outputs": [
        {
          "internalType": "uint256",
          "name": "",
          "type": "uint256"
        }
      ],
      "stateMutability": "view",
      "type": "function"
    },
    {
      "inputs": [],
      "name": "noticeTimeoutAt",
      "outputs": [
        {
          "internalType": "uint256",
          "name": "",
          "type": "uint256"
        }
      ],
      "stateMutability": "view",
      "type": "function"
    },
    {
      "inputs": [],
      "name": "owner",
      "outputs": [
        {
          "internalType": "address",
          "name": "",
          "type": "address"
        }
      ],
      "stateMutability": "view",
      "type": "function"
    },
    {
      "inputs": [],
      "name": "pendingOwner",
      "outputs": [
        {
          "internalType": "address",
          "name": "",
          "type": "address"
        }
      ],
      "stateMutability": "view",
      "type": "function"
    },
    {
      "inputs": [],
      "name": "pool",
      "outputs": [
        {
          "internalType": "contract IBManagedPool",
          "name": "",
          "type": "address"
        }
      ],
      "stateMutability": "view",
      "type": "function"
    },
    {
      "inputs": [],
      "name": "poolController",
      "outputs": [
        {
          "internalType": "contract IBManagedPoolController",
          "name": "",
          "type": "address"
        }
      ],
      "stateMutability": "view",
      "type": "function"
    },
    {
      "inputs": [],
      "name": "poolId",
      "outputs": [
        {
          "internalType": "bytes32",
          "name": "",
          "type": "bytes32"
        }
      ],
      "stateMutability": "view",
      "type": "function"
    },
    {
      "inputs": [],
      "name": "renounceOwnership",
      "outputs": [],
      "stateMutability": "nonpayable",
      "type": "function"
    },
    {
      "inputs": [
        {
          "internalType": "address",
          "name": "newGuardian",
          "type": "address"
        }
      ],
      "name": "setGuardian",
      "outputs": [],
      "stateMutability": "nonpayable",
      "type": "function"
    },
    {
      "inputs": [
        {
          "internalType": "uint256",
          "name": "newSwapFee",
          "type": "uint256"
        }
      ],
      "name": "setSwapFee",
      "outputs": [],
      "stateMutability": "nonpayable",
      "type": "function"
    },
    {
      "inputs": [
        {
          "internalType": "address",
          "name": "token",
          "type": "address"
        },
        {
          "internalType": "uint256",
          "name": "amount",
          "type": "uint256"
        }
      ],
      "name": "sweep",
      "outputs": [],
      "stateMutability": "nonpayable",
      "type": "function"
    },
    {
      "inputs": [
        {
          "internalType": "address",
          "name": "newOwner",
          "type": "address"
        }
      ],
      "name": "transferOwnership",
      "outputs": [],
      "stateMutability": "nonpayable",
      "type": "function"
    },
    {
      "inputs": [
        {
          "components": [
            {
              "internalType": "contract IERC20",
              "name": "token",
              "type": "address"
            },
            {
              "internalType": "uint256",
              "name": "value",
              "type": "uint256"
            }
          ],
          "internalType": "struct IProtocolAPI.TokenValue[]",
          "name": "tokenWithWeight",
          "type": "tuple[]"
        },
        {
          "internalType": "uint256",
          "name": "startTime",
          "type": "uint256"
        },
        {
          "internalType": "uint256",
          "name": "endTime",
          "type": "uint256"
        }
      ],
      "name": "updateWeightsGradually",
      "outputs": [],
      "stateMutability": "nonpayable",
      "type": "function"
    },
    {
      "inputs": [],
      "name": "validator",
      "outputs": [
        {
          "internalType": "contract IWithdrawalValidator",
          "name": "",
          "type": "address"
        }
      ],
      "stateMutability": "view",
      "type": "function"
    },
    {
      "inputs": [
        {
          "components": [
            {
              "internalType": "contract IERC20",
              "name": "token",
              "type": "address"
            },
            {
              "internalType": "uint256",
              "name": "value",
              "type": "uint256"
            }
          ],
          "internalType": "struct IProtocolAPI.TokenValue[]",
          "name": "tokenWithAmount",
          "type": "tuple[]"
        }
      ],
      "name": "withdraw",
      "outputs": [],
      "stateMutability": "nonpayable",
      "type": "function"
    },
    {
      "inputs": [
        {
          "components": [
            {
              "internalType": "contract IERC20",
              "name": "token",
              "type": "address"
            },
            {
              "internalType": "uint256",
              "name": "value",
              "type": "uint256"
            }
          ],
          "internalType": "struct IProtocolAPI.TokenValue[]",
          "name": "tokenWithAmount",
          "type": "tuple[]"
        }
      ],
      "name": "withdrawIfBalanceUnchanged",
      "outputs": [],
      "stateMutability": "nonpayable",
      "type": "function"
    }
  ],
  "transactionHash": "0x8b62a2c63047c57d40276fef9719a7fdb87458a8571337557dcb28704aa0029d",
  "args": [
    {
      "factory": "0x008f0831b55553381aB981B8f535B80d1F9BF822",
      "name": "test",
      "symbol": "TEST",
      "tokens": [
        "0x7ceB23fD6bC0adD59E62ac25578270cFf1b9f619",
        "0x8f3Cf7ad23Cd3CaDbD9735AFf958023239c6A063"
      ],
      "weights": [
        "100000000000000000",
        "900000000000000000"
      ],
      "swapFeePercentage": "1000000000000",
      "guardian": "0x3345261FDae0BC146B2F45484DcCeB4708a3FEC4",
      "validator": "0x3154Eb27b58DFA3800EF439eDFccBd5ca1A7E959",
      "noticePeriod": "30",
      "managementFee": "100000",
      "merkleOrchard": "0x0F3e0c4218b7b0108a3643cFe9D3ec0d4F57c54e",
      "description": "polygontestvault"
    }
  ],
  "solcInputHash": "3729d1470369ff92ae2f9e550c9c6f96",
  "bytecode": "0x6101806040526000196006553480156200001857600080fd5b5060405162006659380380620066598339810160408190526200003b9162000ce6565b620000463362000799565b600180556060810151516080820151518114620000915760808201515160405163ba34664360e01b815262000088918391600401918252602082015260400190565b60405180910390fd5b620000b38260e001516337890bfd60e21b620007e960201b620027611760201c565b620000e35760e0820151604051632667a00d60e21b81526001600160a01b03909116600482015260240162000088565b60008260e001516001600160a01b031663de242ff46040518163ffffffff1660e01b81526004016000604051808303816000875af11580156200012a573d6000803e3d6000fd5b505050506040513d6000823e601f3d908101601f1916820160405262000154919081019062000e71565b51905080821462000183576040516303d42efd60e41b8152600481018390526024810182905260440162000088565b50633b9aca008261012001511115620001c45761012082015160405163060ae0ad60e31b81526004810191909152633b9aca00602482015260440162000088565b624f1a0082610100015163ffffffff1611156200020d576101008201516040516311edb17960e31b815263ffffffff9091166004820152624f1a00602482015260440162000088565b610160820151516200023257604051633b7aa30b60e11b815260040160405180910390fd5b60c0820151620002429062000813565b6000816001600160401b038111156200025f576200025f62000a87565b60405190808252806020026020018201604052801562000289578160200160208202803683370190505b50905060005b82811015620002db5730828281518110620002ae57620002ae62000ea9565b6001600160a01b039092166020928302919091019091015280620002d28162000ebf565b9150506200028f565b508251604080516101a0810182526000808252602080880151818401528388015183850152606080890151818501526080808a01518186015260a0808601899052808b015160c087015260e08601859052610100860185905230610120870152610140860185905260016101608701819052610180870186905287518085018952868152808601829052808901879052885192830189528183529482015280870185905291820184905281018390529351632afe9adf60e21b81526001600160a01b039095169463abfa6b7c94620003b99493909160040162000f8f565b6020604051808303816000875af1158015620003d9573d6000803e3d6000fd5b505050506040513d601f19601f82011682018060405250810190620003ff91906200112a565b6001600160a01b031660a0819052604080516311b2515f60e31b81529051638d928af8916004808201926020929091908290030181865afa15801562000449573d6000803e3d6000fd5b505050506040513d601f19601f820116820180604052508101906200046f91906200112a565b6001600160a01b03166080816001600160a01b03168152505060a0516001600160a01b031663893d20e86040518163ffffffff1660e01b8152600401602060405180830381865afa158015620004c9573d6000803e3d6000fd5b505050506040513d601f19601f82011682018060405250810190620004ef91906200112a565b6001600160a01b0390811660c052610140840151811660e05260a0516040805163038fff2d60e41b8152905191909216916338fff2d09160048083019260209291908290030181865afa1580156200054b573d6000803e3d6000fd5b505050506040513d601f19601f8201168201806040525081019062000571919062001151565b61010090815260c08401516003805462010000600160b01b031916620100006001600160a01b039384160217905560e0850151166101405283015163ffffffff16610120526101608301518051620005d39160029160209190910190620009a4565b5061012083015161016052816001600160401b03811115620005f957620005f962000a87565b60405190808252806020026020018201604052801562000623578160200160208202803683370190505b506003546201000090046001600160a01b0316600090815260076020908152604090912082516200065b939192919091019062000a33565b50816001600160401b0381111562000677576200067762000a87565b604051908082528060200260200182016040528015620006a1578160200160208202803683370190505b508051620006b89160089160209091019062000a33565b508260e001516001600160a01b03168360c001516001600160a01b031684600001516001600160a01b03167f91ef1cf10f75ecc4382f0f95f6322be3a80e6244d49f75f37bf58a6caf9a7b7f86602001518760400151886060015189608001518a60a001518b61010001518c61012001518d61014001518e61016001516040516200074c999897969594939291906200116b565b60405180910390a460c08301516040516001600160a01b03909116906000907fa14fc14d8620a708a896fd11392a235647d99385500a295f0d7da2a258b2e967908290a350505062001292565b600080546001600160a01b038381166001600160a01b0319831681178455604051919092169283917f8be0079c531659141344cd1fd0a4f28419497f9722a3daafe3b4186f6b6457e09190a35050565b6000620007f6836200087a565b80156200080a57506200080a8383620008b2565b90505b92915050565b6001600160a01b0381166200083b5760405163c93c257960e01b815260040160405180910390fd5b6000546001600160a01b0382811691161415620008775760405163058cd72160e21b81526001600160a01b038216600482015260240162000088565b50565b60006200088f826301ffc9a760e01b620008b2565b80156200080d5750620008ab826001600160e01b0319620008b2565b1592915050565b604080516001600160e01b0319831660248083019190915282518083039091018152604490910182526020810180516001600160e01b03166301ffc9a760e01b179052905160009190829081906001600160a01b03871690617530906200091b90869062001213565b6000604051808303818686fa925050503d806000811462000959576040519150601f19603f3d011682016040523d82523d6000602084013e6200095e565b606091505b50915091506020815110156200097b57600093505050506200080d565b8180156200099a5750808060200190518101906200099a919062001231565b9695505050505050565b828054620009b29062001255565b90600052602060002090601f016020900481019282620009d6576000855562000a21565b82601f10620009f157805160ff191683800117855562000a21565b8280016001018555821562000a21579182015b8281111562000a2157825182559160200191906001019062000a04565b5062000a2f92915062000a70565b5090565b82805482825590600052602060002090810192821562000a21579160200282018281111562000a2157825182559160200191906001019062000a04565b5b8082111562000a2f576000815560010162000a71565b634e487b7160e01b600052604160045260246000fd5b60405161018081016001600160401b038111828210171562000ac35762000ac362000a87565b60405290565b604051601f8201601f191681016001600160401b038111828210171562000af45762000af462000a87565b604052919050565b6001600160a01b03811681146200087757600080fd5b805162000b1f8162000afc565b919050565b60005b8381101562000b4157818101518382015260200162000b27565b8381111562000b51576000848401525b50505050565b600082601f83011262000b6957600080fd5b81516001600160401b0381111562000b855762000b8562000a87565b62000b9a601f8201601f191660200162000ac9565b81815284602083860101111562000bb057600080fd5b62000bc382602083016020870162000b24565b949350505050565b60006001600160401b0382111562000be75762000be762000a87565b5060051b60200190565b600082601f83011262000c0357600080fd5b8151602062000c1c62000c168362000bcb565b62000ac9565b82815260059290921b8401810191818101908684111562000c3c57600080fd5b8286015b8481101562000c6457805162000c568162000afc565b835291830191830162000c40565b509695505050505050565b600082601f83011262000c8157600080fd5b8151602062000c9462000c168362000bcb565b82815260059290921b8401810191818101908684111562000cb457600080fd5b8286015b8481101562000c64578051835291830191830162000cb8565b805163ffffffff8116811462000b1f57600080fd5b60006020828403121562000cf957600080fd5b81516001600160401b038082111562000d1157600080fd5b90830190610180828603121562000d2757600080fd5b62000d3162000a9d565b62000d3c8362000b12565b815260208301518281111562000d5157600080fd5b62000d5f8782860162000b57565b60208301525060408301518281111562000d7857600080fd5b62000d868782860162000b57565b60408301525060608301518281111562000d9f57600080fd5b62000dad8782860162000bf1565b60608301525060808301518281111562000dc657600080fd5b62000dd48782860162000c6f565b60808301525060a083015160a082015262000df260c0840162000b12565b60c082015262000e0560e0840162000b12565b60e082015261010062000e1a81850162000cd1565b90820152610120838101519082015261014062000e3981850162000b12565b90820152610160838101518381111562000e5257600080fd5b62000e608882870162000b57565b918301919091525095945050505050565b60006020828403121562000e8457600080fd5b81516001600160401b0381111562000e9b57600080fd5b62000bc38482850162000c6f565b634e487b7160e01b600052603260045260246000fd5b600060001982141562000ee257634e487b7160e01b600052601160045260246000fd5b5060010190565b6000815180845262000f0381602086016020860162000b24565b601f01601f19169290920160200192915050565b600081518084526020808501945080840160005b8381101562000f525781516001600160a01b03168752958201959082019060010162000f2b565b509495945050505050565b600081518084526020808501945080840160005b8381101562000f525781518752958201959082019060010162000f71565b600061014080835262000fad81840188516001600160a01b03169052565b60208701516101a0610160818187015262000fcd6102e087018462000ee9565b925060408a015161013f196101808189870301818a015262000ff0868462000ee9565b955060608d015192508189870301858a01526200100e868462000f17565b955060808d0151945081898703016101c08a01526200102e868662000f5d565b955060a08d0151945081898703016101e08a01526200104e868662000f17565b955060c08d01516102008a015260e08d01516102208a01526101008d01516102408a01526101209450848d01519250620010946102608a01846001600160a01b03169052565b958c0151151561028089015250508901518015156102a0870152928901516102c0860152875115156020808701919091528801511515604080870191909152880151151560608601529092508290865115156080868101919091526020880151151560a08701526040880151151560c08701526060880151151560e0870152909601511515610100850152505092015292915050565b6000602082840312156200113d57600080fd5b81516200114a8162000afc565b9392505050565b6000602082840312156200116457600080fd5b5051919050565b6000610120808352620011818184018d62000ee9565b9050828103602084015262001197818c62000ee9565b90508281036040840152620011ad818b62000f17565b90508281036060840152620011c3818a62000f5d565b6080840189905263ffffffff881660a085015260c084018790526001600160a01b03861660e0850152838103610100850152905062001203818562000ee9565b9c9b505050505050505050505050565b600082516200122781846020870162000b24565b9190910192915050565b6000602082840312156200124457600080fd5b815180151581146200114a57600080fd5b600181811c908216806200126a57607f821691505b602082108114156200128c57634e487b7160e01b600052602260045260246000fd5b50919050565b60805160a05160c05160e05161010051610120516101405161016051615281620013d8600039600081816105b701528181612c0d0152612d98015260008181610440015261388301526000818161056a01526124b2015260008181610467015281816108c501528181611ded01526141c301526000818161062d0152611fd50152600081816104b001528181610d140152818161147e015281816121a401528181612223015281816128d901526129620152600081816103790152818161079d01528181610b800152818161138a015281816115170152818161188201528181611ee8015281816120d3015281816126dd015281816130870152818161336b0152818161390f0152613e3b015260008181610419015281816108fb01528181611dc00152818161376c015281816137fc01528181613830015261430c01526152816000f3fe608060405234801561001057600080fd5b50600436106103155760003560e01c8063715018a6116101a7578063bae930cb116100ee578063de9a395511610097578063ecdbb2b311610071578063ecdbb2b3146106ab578063f2fde38b146106be578063f89f27ed146106d157600080fd5b8063de9a39551461067d578063e30c397814610690578063ea0ebcec146106a357600080fd5b8063d4cadf68116100c8578063d4cadf681461064f578063d668319b14610657578063d92a2c3b1461066a57600080fd5b8063bae930cb14610600578063d353ac7c14610613578063d38dc45d1461062857600080fd5b80639b14d4c611610150578063a6f7f5d61161012a578063a6f7f5d6146105b2578063aa6ca808146105d9578063b3f05b97146105ee57600080fd5b80639b14d4c614610565578063a186a8431461058c578063a582c3e01461059f57600080fd5b806379ba50971161018157806379ba5097146105395780638a0dac4a146105415780638da5cb5b1461055457600080fd5b8063715018a6146105135780637284e4161461051b578063779b3c001461053057600080fd5b806334e199071161026b5780634771233b1161021457806359e97475116101ee57806359e97475146104da5780635c3ad75b146104ed5780636ea056a91461050057600080fd5b80634771233b146104a25780634aa9d585146104ab5780634bb278f3146104d257600080fd5b80633a5381b5116102455780633a5381b51461043b5780633e0dc34e14610462578063452a93201461048957600080fd5b806334e19907146103f9578063351a964d1461040c578063394b71cf1461041457600080fd5b806317700f01116102cd5780632612d285116102a75780632612d285146103d657806329869ac2146103de5780632adcfeab146103e657600080fd5b806317700f01146103b357806317869dfb146103bb57806323452b9c146103ce57600080fd5b806309402ebd116102fe57806309402ebd14610340578063158ef93e1461035757806316f0115b1461037457600080fd5b8063022a1e831461031a578063053d7a2414610324575b600080fd5b6103226106d9565b005b61032d60095481565b6040519081526020015b60405180910390f35b6103486108b6565b6040516103379392919061482b565b6003546103649060ff1681565b6040519015158152602001610337565b61039b7f000000000000000000000000000000000000000000000000000000000000000081565b6040516001600160a01b039091168152602001610337565b610322610975565b6103226103c93660046148ad565b6109ee565b610322610dca565b610322610ea0565b610322610f15565b6103226103f43660046148fe565b6111c5565b610322610407366004614940565b6112d9565b610364611513565b61039b7f000000000000000000000000000000000000000000000000000000000000000081565b61039b7f000000000000000000000000000000000000000000000000000000000000000081565b61032d7f000000000000000000000000000000000000000000000000000000000000000081565b60035461039b906201000090046001600160a01b031681565b61032d60055481565b61039b7f000000000000000000000000000000000000000000000000000000000000000081565b61032261159c565b6103226104e83660046148fe565b611733565b61032d6104fb366004614940565b611817565b61032261050e36600461496e565b611838565b6103226118fd565b61052361195e565b60405161033791906149f2565b61032d60065481565b6103226119ec565b61032261054f366004614a05565b611a3e565b6000546001600160a01b031661039b565b61032d7f000000000000000000000000000000000000000000000000000000000000000081565b61032261059a3660046148fe565b611c0f565b61032d6105ad36600461496e565b611e61565b61032d7f000000000000000000000000000000000000000000000000000000000000000081565b6105e1611e92565b6040516103379190614a22565b60035461036490610100900460ff1681565b61032d61060e366004614940565b611ea4565b61061b611ed3565b6040516103379190614a35565b61039b7f000000000000000000000000000000000000000000000000000000000000000081565b61032d611ee4565b610322610665366004614a8d565b611f68565b6103226106783660046148fe565b612066565b61032261068b3660046148fe565b6122c8565b60045461039b906001600160a01b031681565b6103226123d3565b6103226106b93660046148fe565b612525565b6103226106cc366004614a05565b612601565b61061b6126d9565b6002600154141561071f5760405162461bcd60e51b815260206004820152601f602482015260008051602061520c83398151915260448201526064015b60405180910390fd5b60026001556003546201000090046001600160a01b031633146107555760405163f5185ed160e01b815260040160405180910390fd5b60035460ff1661077857604051630d02863960e41b815260040160405180910390fd5b600554156107995760405163253aa89960e21b815260040160405180910390fd5b60007f00000000000000000000000000000000000000000000000000000000000000006001600160a01b031663f89f27ed6040518163ffffffff1660e01b8152600401600060405180830381865afa1580156107f9573d6000803e3d6000fd5b505050506040513d6000823e601f3d908101601f191682016040526108219190810190614bcf565b80519091506000805b8281101561086b5783818151811061084457610844614c04565b6020026020010151826108579190614c30565b91508061086381614c48565b91505061082a565b506108768382612786565b7fe1c26311599888c5d4545b1d0a5496eaf69b01efac05dcff1ad20cf8527adc9b836040516108a59190614a35565b60405180910390a150506001805550565b604051631f29a8cd60e31b81527f0000000000000000000000000000000000000000000000000000000000000000600482015260609081906000906001600160a01b037f0000000000000000000000000000000000000000000000000000000000000000169063f94d466890602401600060405180830381865afa158015610942573d6000803e3d6000fd5b505050506040513d6000823e601f3d908101601f1916820160405261096a9190810190614c63565b925092509250909192565b6000546001600160a01b031633148015906109a157506003546201000090046001600160a01b03163314155b156109bf5760405163b232ee5560e01b815260040160405180910390fd5b60035460ff166109e257604051630d02863960e41b815260040160405180910390fd5b6109ec600061294b565b565b60026001541415610a2f5760405162461bcd60e51b815260206004820152601f602482015260008051602061520c8339815191526044820152606401610716565b60026001556003546201000090046001600160a01b03163314610a655760405163f5185ed160e01b815260040160405180910390fd5b60035460ff16610a8857604051630d02863960e41b815260040160405180910390fd5b60055415610aa95760405163253aa89960e21b815260040160405180910390fd5b63ffffffff821115610adb576040516301f6e8bd60e21b81526004810183905263ffffffff6024820152604401610716565b63ffffffff811115610b0d5760405163c4fb80b760e01b81526004810182905263ffffffff6024820152604401610716565b610b174283612a04565b915080821115610b3a5760405163bb1cd83f60e01b815260040160405180910390fd5b80610b4761384084614c30565b1115610b7c57610b578282614d31565b6040516323947a2b60e21b815260048101919091526138406024820152604401610716565b60007f00000000000000000000000000000000000000000000000000000000000000006001600160a01b031663f89f27ed6040518163ffffffff1660e01b8152600401600060405180830381865afa158015610bdc573d6000803e3d6000fd5b505050506040513d6000823e601f3d908101601f19168201604052610c049190810190614bcf565b90506000610c10611e92565b80519091506000610c22888885612a1a565b90506000610c308787614d31565b90506000610c458266038d7ea4c68000614d48565b905060005b84811015610cfc576000610c90888381518110610c6957610c69614c04565b6020026020010151868481518110610c8357610c83614c04565b6020026020010151612bc3565b905082811115610ce957868281518110610cac57610cac614c04565b6020908102919091010151604051623e294360e81b81526001600160a01b0390911660048201526024810182905260448101849052606401610716565b5080610cf481614c48565b915050610c4a565b50604051633e56920560e01b81526001600160a01b037f00000000000000000000000000000000000000000000000000000000000000001690633e56920590610d4d908b908b908890600401614d67565b600060405180830381600087803b158015610d6757600080fd5b505af1158015610d7b573d6000803e3d6000fd5b505050507f10d2cebdbfcb912ca22f107e18eadc260a534609e13140deac4568a732171826888885604051610db293929190614d67565b60405180910390a15050600180555050505050505050565b6000546001600160a01b03163314610e125760405162461bcd60e51b8152602060048201819052602482015260008051602061522c8339815191526044820152606401610716565b6004546001600160a01b0316610e3b5760405163aa84e89360e01b815260040160405180910390fd5b6004546001600160a01b0316610e596000546001600160a01b031690565b6001600160a01b03167fe83a760af9d3c86797ea13c8979010086f067cfe3c985b2d03d951248600c50f60405160405180910390a3600480546001600160a01b0319169055565b6000546001600160a01b03163314610ee85760405162461bcd60e51b8152602060048201819052602482015260008051602061522c8339815191526044820152606401610716565b60035460ff16610f0b57604051630d02863960e41b815260040160405180910390fd5b6109ec600161294b565b60026001541415610f565760405162461bcd60e51b815260206004820152601f602482015260008051602061520c8339815191526044820152606401610716565b600260015560035460ff16610f7e57604051630d02863960e41b815260040160405180910390fd5b60055415610f9f5760405163253aa89960e21b815260040160405180910390fd5b6003546201000090046001600160a01b0316331415610fc057610fc0612c0b565b33600090815260076020526040902054610fef57604051638f8e17d160e01b8152336004820152602401610716565b606080610ffa6108b6565b508151336000908152600760209081526040808320805482518185028101850190935280835296985094965092949193919083018282801561105b57602002820191906000526020600020905b815481526020019060010190808311611047575b5050505050905060005b828110156111495781818151811061107f5761107f614c04565b60200260200101516008828154811061109a5761109a614c04565b9060005260206000200160008282546110b39190614d31565b90915550503360009081526007602052604081208054839081106110d9576110d9614c04565b9060005260206000200181905550611137338383815181106110fd576110fd614c04565b602002602001015187848151811061111757611117614c04565b60200260200101516001600160a01b0316612fe49092919063ffffffff16565b8061114181614c48565b915050611065565b506003546201000090046001600160a01b0316331461117a5733600090815260076020526040812061117a91614739565b336001600160a01b03167ff07ac40708a36cdbc3311e096e0f0dd64d741b00090c5d161783487c2415e544826040516111b39190614a35565b60405180910390a25050600180555050565b600260015414156112065760405162461bcd60e51b815260206004820152601f602482015260008051602061520c8339815191526044820152606401610716565b60026001556000546001600160a01b031633146112535760405162461bcd60e51b8152602060048201819052602482015260008051602061522c8339815191526044820152606401610716565b60035460ff1661127657604051630d02863960e41b815260040160405180910390fd5b600554156112975760405163253aa89960e21b815260040160405180910390fd5b60006112a16108b6565b92505050438114156112c6576040516301ff841d60e51b815260040160405180910390fd5b6112d08383613061565b50506001805550565b6002600154141561131a5760405162461bcd60e51b815260206004820152601f602482015260008051602061520c8339815191526044820152606401610716565b60026001556003546201000090046001600160a01b031633146113505760405163f5185ed160e01b815260040160405180910390fd5b603c60095461135f9190614c30565b42101561137f57604051632843635360e01b815260040160405180910390fd5b4260098190555060007f00000000000000000000000000000000000000000000000000000000000000006001600160a01b03166355c676286040518163ffffffff1660e01b8152600401602060405180830381865afa1580156113e6573d6000803e3d6000fd5b505050506040513d601f19601f8201168201806040525081019061140a9190614d8f565b905060008183116114245761141f8383614d31565b61142e565b61142e8284614d31565b90506611c37937e08000811115611468576040516380d8c52b60e01b8152600481018290526611c37937e080006024820152604401610716565b604051631c74c91760e11b8152600481018490527f00000000000000000000000000000000000000000000000000000000000000006001600160a01b0316906338e9922e90602401600060405180830381600087803b1580156114ca57600080fd5b505af11580156114de573d6000803e3d6000fd5b505050507fcda74150def0ede554aff5f677be9df0e226fddff9bd9ceddf732b9673b1c92d836040516108a591815260200190565b60007f00000000000000000000000000000000000000000000000000000000000000006001600160a01b03166347bc4d926040518163ffffffff1660e01b8152600401602060405180830381865afa158015611573573d6000803e3d6000fd5b505050506040513d601f19601f820116820180604052508101906115979190614da8565b905090565b600260015414156115dd5760405162461bcd60e51b815260206004820152601f602482015260008051602061520c8339815191526044820152606401610716565b60026001556000546001600160a01b0316331461162a5760405162461bcd60e51b8152602060048201819052602482015260008051602061522c8339815191526044820152606401610716565b60035460ff1661164d57604051630d02863960e41b815260040160405180910390fd5b600354610100900460ff16156116765760405163a8301b8360e01b815260040160405180910390fd5b6005546116965760405163ba92a7ed60e01b815260040160405180910390fd5b4260055411156116bf576005546040516397f6ebc760e01b815260040161071691815260200190565b6003805461ff00191661010017905560006116d8613412565b90506116ec6000546001600160a01b031690565b6001600160a01b03167fdc2a54875b2c12c509c49d8497fade5643d0547ce751bae768b9e9ae8c647480826040516117249190614a35565b60405180910390a25060018055565b600260015414156117745760405162461bcd60e51b815260206004820152601f602482015260008051602061520c8339815191526044820152606401610716565b60026001556000546001600160a01b031633146117c15760405162461bcd60e51b8152602060048201819052602482015260008051602061522c8339815191526044820152606401610716565b60035460ff166117e457604051630d02863960e41b815260040160405180910390fd5b600554156118055760405163253aa89960e21b815260040160405180910390fd5b61180f8282613061565b505060018055565b6008818154811061182757600080fd5b600091825260209091200154905081565b6000546001600160a01b031633146118805760405162461bcd60e51b8152602060048201819052602482015260008051602061522c8339815191526044820152606401610716565b7f00000000000000000000000000000000000000000000000000000000000000006001600160a01b0316826001600160a01b031614156118d35760405163d0cbace960e01b815260040160405180910390fd5b6118f96118e86000546001600160a01b031690565b6001600160a01b0384169083612fe4565b5050565b6000546001600160a01b031633146119455760405162461bcd60e51b8152602060048201819052602482015260008051602061522c8339815191526044820152606401610716565b604051634fdacacf60e01b815260040160405180910390fd5b6002805461196b90614dca565b80601f016020809104026020016040519081016040528092919081815260200182805461199790614dca565b80156119e45780601f106119b9576101008083540402835291602001916119e4565b820191906000526020600020905b8154815290600101906020018083116119c757829003601f168201915b505050505081565b6004546001600160a01b03163314611a1757604051637a6df06f60e01b815260040160405180910390fd5b600454611a2c906001600160a01b0316613591565b600480546001600160a01b0319169055565b60026001541415611a7f5760405162461bcd60e51b815260206004820152601f602482015260008051602061520c8339815191526044820152606401610716565b60026001556000546001600160a01b03163314611acc5760405162461bcd60e51b8152602060048201819052602482015260008051602061522c8339815191526044820152606401610716565b611ad5816135e1565b60035460ff168015611ae75750600554155b15611af457611af4612c0b565b6001600160a01b038116600090815260076020526040902054611b8b57611b19611e92565b5167ffffffffffffffff811115611b3257611b32614af9565b604051908082528060200260200182016040528015611b5b578160200160208202803683370190505b506001600160a01b03821660009081526007602090815260409091208251611b899391929190910190614757565b505b6003546040516001600160a01b038084169262010000900416907fa14fc14d8620a708a896fd11392a235647d99385500a295f0d7da2a258b2e96790600090a3600380546001600160a01b0390921662010000027fffffffffffffffffffff0000000000000000000000000000000000000000ffff90921691909117905560018055565b6000546001600160a01b03163314611c575760405162461bcd60e51b8152602060048201819052602482015260008051602061522c8339815191526044820152606401610716565b60035460ff1615611c7b57604051635feef03760e01b815260040160405180910390fd5b6003805460ff19166001179055426006556000611c96611e92565b805190915060008167ffffffffffffffff811115611cb657611cb6614af9565b604051908082528060200260200182016040528015611cdf578160200160208202803683370190505b5090506000611cef868686612a1a565b905060005b83811015611d6757611d38858281518110611d1157611d11614c04565b6020026020010151838381518110611d2b57611d2b614c04565b6020026020010151613645565b838281518110611d4a57611d4a614c04565b602090810291909101015280611d5f81614c48565b915050611cf4565b5060008082604051602001611d7d929190614e1b565b60408051601f198184030181526080830182528783526020830186905282820181905260006060840152905163172b958560e31b81529092506001600160a01b037f0000000000000000000000000000000000000000000000000000000000000000169063b95cac2890611e1b907f000000000000000000000000000000000000000000000000000000000000000090309081908790600401614e44565b600060405180830381600087803b158015611e3557600080fd5b505af1158015611e49573d6000803e3d6000fd5b50505050611e57600161294b565b5050505050505050565b60076020528160005260406000208181548110611e7d57600080fd5b90600052602060002001600091509150505481565b6060611e9c6108b6565b509092915050565b600080611eaf611ed3565b9050808381518110611ec357611ec3614c04565b6020026020010151915050919050565b6060611edd6108b6565b5092915050565b60007f00000000000000000000000000000000000000000000000000000000000000006001600160a01b03166355c676286040518163ffffffff1660e01b8152600401602060405180830381865afa158015611f44573d6000803e3d6000fd5b505050506040513d601f19601f820116820180604052508101906115979190614d8f565b6000546001600160a01b03163314611fb05760405162461bcd60e51b8152602060048201819052602482015260008051602061522c8339815191526044820152606401610716565b60035460ff16611fd357604051630d02863960e41b815260040160405180910390fd5b7f00000000000000000000000000000000000000000000000000000000000000006001600160a01b0316632b6301406120146000546001600160a01b031690565b868686866040518663ffffffff1660e01b8152600401612038959493929190614f9a565b600060405180830381600087803b15801561205257600080fd5b505af1158015611e57573d6000803e3d6000fd5b6000546001600160a01b031633146120ae5760405162461bcd60e51b8152602060048201819052602482015260008051602061522c8339815191526044820152606401610716565b60035460ff166120d157604051630d02863960e41b815260040160405180910390fd5b7f00000000000000000000000000000000000000000000000000000000000000006001600160a01b03166347bc4d926040518163ffffffff1660e01b8152600401602060405180830381865afa15801561212f573d6000803e3d6000fd5b505050506040513d601f19601f820116820180604052508101906121539190614da8565b156121715760405163721c238360e01b815260040160405180910390fd5b600061217b611e92565b9050600061218a848484612a1a565b604051633e56920560e01b81529091506001600160a01b037f00000000000000000000000000000000000000000000000000000000000000001690633e569205906121dd90429081908690600401614d67565b600060405180830381600087803b1580156121f757600080fd5b505af115801561220b573d6000803e3d6000fd5b5050604051633806be4b60e21b8152600160048201527f00000000000000000000000000000000000000000000000000000000000000006001600160a01b0316925063e01af92c9150602401600060405180830381600087803b15801561227157600080fd5b505af1158015612285573d6000803e3d6000fd5b505050507faca0f1c3f5bcb639955c1a1efad051b1ef42f86b76694900ac0ff5a8165f779d42826040516122ba9291906150b1565b60405180910390a150505050565b600260015414156123095760405162461bcd60e51b815260206004820152601f602482015260008051602061520c8339815191526044820152606401610716565b60026001556000546001600160a01b031633146123565760405162461bcd60e51b8152602060048201819052602482015260008051602061522c8339815191526044820152606401610716565b60035460ff1661237957604051630d02863960e41b815260040160405180910390fd5b6005541561239a5760405163253aa89960e21b815260040160405180910390fd5b60006123a46108b6565b92505050438114156123c9576040516301ff841d60e51b815260040160405180910390fd5b6112d0838361385d565b600260015414156124145760405162461bcd60e51b815260206004820152601f602482015260008051602061520c8339815191526044820152606401610716565b60026001556000546001600160a01b031633146124615760405162461bcd60e51b8152602060048201819052602482015260008051602061522c8339815191526044820152606401610716565b60035460ff1661248457604051630d02863960e41b815260040160405180910390fd5b600554156124a55760405163253aa89960e21b815260040160405180910390fd5b6124ad612c0b565b6124d77f000000000000000000000000000000000000000000000000000000000000000042614c30565b6005556124e4600061294b565b7fa3f032386f9b5d8bac197b7631bf43c667393828263c2cece0e43b63f015cf1d60055460405161251791815260200190565b60405180910390a160018055565b600260015414156125665760405162461bcd60e51b815260206004820152601f602482015260008051602061520c8339815191526044820152606401610716565b60026001556000546001600160a01b031633146125b35760405162461bcd60e51b8152602060048201819052602482015260008051602061522c8339815191526044820152606401610716565b60035460ff166125d657604051630d02863960e41b815260040160405180910390fd5b600554156125f75760405163253aa89960e21b815260040160405180910390fd5b61180f828261385d565b6000546001600160a01b031633146126495760405162461bcd60e51b8152602060048201819052602482015260008051602061522c8339815191526044820152606401610716565b6001600160a01b03811661267057604051634616c29760e01b815260040160405180910390fd5b600480546001600160a01b0383166001600160a01b031990911681179091556126a16000546001600160a01b031690565b6001600160a01b03167fc6d61e41813bc81d93c1b08d44a36d3c91d6e3a7a76e216120c215db016490c060405160405180910390a350565b60607f00000000000000000000000000000000000000000000000000000000000000006001600160a01b031663f89f27ed6040518163ffffffff1660e01b8152600401600060405180830381865afa158015612739573d6000803e3d6000fd5b505050506040513d6000823e601f3d908101601f191682016040526115979190810190614bcf565b600061276c83613ecf565b801561277d575061277d8383613f02565b90505b92915050565b815160008167ffffffffffffffff8111156127a3576127a3614af9565b6040519080825280602002602001820160405280156127cc578160200160208202803683370190505b5090506000805b8381101561286a5784670de0b6b3a76400008783815181106127f7576127f7614c04565b60200260200101516128099190614d48565b61281391906150ca565b83828151811061282557612825614c04565b60200260200101818152505082818151811061284357612843614c04565b6020026020010151826128569190614c30565b91508061286281614c48565b9150506127d3565b5080670de0b6b3a76400008360008151811061288857612888614c04565b602002602001015161289a9190614c30565b6128a49190614d31565b826000815181106128b7576128b7614c04565b6020908102919091010152604051633e56920560e01b81526001600160a01b037f00000000000000000000000000000000000000000000000000000000000000001690633e5692059061291290429081908790600401614d67565b600060405180830381600087803b15801561292c57600080fd5b505af1158015612940573d6000803e3d6000fd5b505050505050505050565b604051633806be4b60e21b815281151560048201527f00000000000000000000000000000000000000000000000000000000000000006001600160a01b03169063e01af92c90602401600060405180830381600087803b1580156129ae57600080fd5b505af11580156129c2573d6000803e3d6000fd5b505050507f8bcc108c7d867d0a70433f71ecba3056c4dcc48eaabe4ca987f9fb1f836091d5816040516129f9911515815260200190565b60405180910390a150565b6000818311612a13578161277d565b5090919050565b8051606090838114612a495760405163ba34664360e01b81526004810182905260248101859052604401610716565b60008167ffffffffffffffff811115612a6457612a64614af9565b604051908082528060200260200182016040528015612a8d578160200160208202803683370190505b50905060005b82811015612bb757848181518110612aad57612aad614c04565b60200260200101516001600160a01b0316878783818110612ad057612ad0614c04565b612ae69260206040909202019081019150614a05565b6001600160a01b031614612b6c57868682818110612b0657612b06614c04565b612b1c9260206040909202019081019150614a05565b858281518110612b2e57612b2e614c04565b602090810291909101015160405163030c4e0160e61b81526001600160a01b0392831660048201529116602482015260448101829052606401610716565b868682818110612b7e57612b7e614c04565b90506040020160200135828281518110612b9a57612b9a614c04565b602090810291909101015280612baf81614c48565b915050612a93565b509150505b9392505050565b6000818311612bee5782612bdf83670de0b6b3a7640000614d48565b612be991906150ca565b61277d565b81612c0184670de0b6b3a7640000614d48565b61277d91906150ca565b7f0000000000000000000000000000000000000000000000000000000000000000612c3257565b6006544211612c3d57565b606080612c486108b6565b508151919350915060008167ffffffffffffffff811115612c6b57612c6b614af9565b604051908082528060200260200182016040528015612c94578160200160208202803683370190505b50905060008267ffffffffffffffff811115612cb257612cb2614af9565b604051908082528060200260200182016040528015612cdb578160200160208202803683370190505b50905060005b83811015612e2c57858181518110612cfb57612cfb614c04565b60209081029190910101516040516370a0823160e01b81523060048201526001600160a01b03909116906370a0823190602401602060405180830381865afa158015612d4b573d6000803e3d6000fd5b505050506040513d601f19601f82011682018060405250810190612d6f9190614d8f565b828281518110612d8157612d81614c04565b602002602001018181525050670de0b6b3a76400007f000000000000000000000000000000000000000000000000000000000000000060065442612dc59190614d31565b878481518110612dd757612dd7614c04565b6020026020010151612de99190614d48565b612df39190614d48565b612dfd91906150ca565b838281518110612e0f57612e0f614c04565b602090810291909101015280612e2481614c48565b915050612ce1565b5042600655612e3a82614000565b60005b83811015612fdc57818181518110612e5757612e57614c04565b6020026020010151868281518110612e7157612e71614c04565b60209081029190910101516040516370a0823160e01b81523060048201526001600160a01b03909116906370a0823190602401602060405180830381865afa158015612ec1573d6000803e3d6000fd5b505050506040513d601f19601f82011682018060405250810190612ee59190614d8f565b612eef9190614d31565b838281518110612f0157612f01614c04565b602002602001018181525050828181518110612f1f57612f1f614c04565b6020908102919091018101516003546201000090046001600160a01b0316600090815260079092526040909120805483908110612f5e57612f5e614c04565b906000526020600020016000828254612f779190614c30565b92505081905550828181518110612f9057612f90614c04565b602002602001015160088281548110612fab57612fab614c04565b906000526020600020016000828254612fc49190614c30565b90915550819050612fd481614c48565b915050612e3d565b505050505050565b6040516001600160a01b03831660248201526044810182905261305c90849063a9059cbb60e01b906064015b60408051601f198184030181529190526020810180517bffffffffffffffffffffffffffffffffffffffffffffffffffffffff166001600160e01b03199093169290921790915261405e565b505050565b613069612c0b565b6060806130746108b6565b50809250819350505060008251905060007f00000000000000000000000000000000000000000000000000000000000000006001600160a01b031663f89f27ed6040518163ffffffff1660e01b8152600401600060405180830381865afa1580156130e3573d6000803e3d6000fd5b505050506040513d6000823e601f3d908101601f1916820160405261310b9190810190614bcf565b905060008267ffffffffffffffff81111561312857613128614af9565b604051908082528060200260200182016040528015613151578160200160208202803683370190505b5090506000613161888888612a1a565b905060005b848110156131d55781818151811061318057613180614c04565b60200260200101516000146131c3576131a4878281518110611d1157611d11614c04565b8382815181106131b6576131b6614c04565b6020026020010181815250505b806131cd81614c48565b915050613166565b506131e1826002614143565b6131ec826001614143565b60006131f6611ed3565b90506000805b8681101561333b5783818151811061321657613216614c04565b60200260200101516000146133025787818151811061323757613237614c04565b602002602001015183828151811061325157613251614c04565b602002602001015187838151811061326b5761326b614c04565b602002602001015161327d9190614d48565b61328791906150ca565b86828151811061329957613299614c04565b6020026020010181815250508781815181106132b7576132b7614c04565b60200260200101518382815181106132d1576132d1614c04565b60200260200101516132e39190614d31565b8582815181106132f5576132f5614c04565b6020026020010181815250505b85818151811061331457613314614c04565b6020026020010151826133279190614c30565b91508061333381614c48565b9150506131fc565b506133468582612786565b7f778d328810650d10cb37a1ec58af34374e6eb175435d895ef712a781e6cb1b8083857f00000000000000000000000000000000000000000000000000000000000000006001600160a01b031663f89f27ed6040518163ffffffff1660e01b8152600401600060405180830381865afa1580156133c7573d6000803e3d6000fd5b505050506040513d6000823e601f3d908101601f191682016040526133ef9190810190614bcf565b6040516133fe939291906150ec565b60405180910390a150505050505050505050565b606080606061341f6108b6565b50815191935091508067ffffffffffffffff81111561344057613440614af9565b604051908082528060200260200182016040528015613469578160200160208202803683370190505b50935061347582614000565b60008060005b838110156135885785818151811061349557613495614c04565b60200260200101519150600881815481106134b2576134b2614c04565b6000918252602090912001546040516370a0823160e01b81523060048201526001600160a01b038416906370a0823190602401602060405180830381865afa158015613502573d6000803e3d6000fd5b505050506040513d601f19601f820116820180604052508101906135269190614d8f565b6135309190614d31565b92506135586135476000546001600160a01b031690565b6001600160a01b0384169085612fe4565b8287828151811061356b5761356b614c04565b60209081029190910101528061358081614c48565b91505061347b565b50505050505090565b600080546001600160a01b038381166001600160a01b0319831681178455604051919092169283917f8be0079c531659141344cd1fd0a4f28419497f9722a3daafe3b4186f6b6457e09190a35050565b6001600160a01b0381166136085760405163c93c257960e01b815260040160405180910390fd5b6000546001600160a01b03828116911614156136425760405163058cd72160e21b81526001600160a01b0382166004820152602401610716565b50565b6040516370a0823160e01b815230600482015260009081906001600160a01b038516906370a0823190602401602060405180830381865afa15801561368e573d6000803e3d6000fd5b505050506040513d601f19601f820116820180604052508101906136b29190614d8f565b90506136db6136c96000546001600160a01b031690565b6001600160a01b03861690308661437b565b6040516370a0823160e01b815230600482015281906001600160a01b038616906370a0823190602401602060405180830381865afa158015613721573d6000803e3d6000fd5b505050506040513d601f19601f820116820180604052508101906137459190614d8f565b61374f9190614d31565b604051636eb1769f60e11b81523060048201526001600160a01b037f00000000000000000000000000000000000000000000000000000000000000008116602483015291925060009186169063dd62ed3e90604401602060405180830381865afa1580156137c1573d6000803e3d6000fd5b505050506040513d601f19601f820116820180604052508101906137e59190614d8f565b90508015613821576138216001600160a01b0386167f0000000000000000000000000000000000000000000000000000000000000000836143b9565b6138556001600160a01b0386167f0000000000000000000000000000000000000000000000000000000000000000846144e0565b509392505050565b613865612c0b565b6060806138706108b6565b50809250819350505060008251905060007f00000000000000000000000000000000000000000000000000000000000000006001600160a01b031663de242ff46040518163ffffffff1660e01b81526004016000604051808303816000875af11580156138e1573d6000803e3d6000fd5b505050506040513d6000823e601f3d908101601f191682016040526139099190810190614bcf565b905060007f00000000000000000000000000000000000000000000000000000000000000006001600160a01b031663f89f27ed6040518163ffffffff1660e01b8152600401600060405180830381865afa15801561396b573d6000803e3d6000fd5b505050506040513d6000823e601f3d908101601f191682016040526139939190810190614bcf565b905060008367ffffffffffffffff8111156139b0576139b0614af9565b6040519080825280602002602001820160405280156139d9578160200160208202803683370190505b50905060006139e9898989612a1a565b905060005b85811015613be657868181518110613a0857613a08614c04565b6020026020010151828281518110613a2257613a22614c04565b60200260200101511180613a675750848181518110613a4357613a43614c04565b6020026020010151828281518110613a5d57613a5d614c04565b6020026020010151115b15613b0e57878181518110613a7e57613a7e614c04565b6020026020010151828281518110613a9857613a98614c04565b6020026020010151613adc898481518110613ab557613ab5614c04565b6020026020010151888581518110613acf57613acf614c04565b6020026020010151614592565b60405163bdac907560e01b81526001600160a01b03909316600484015260248301919091526044820152606401610716565b818181518110613b2057613b20614c04565b6020026020010151600014613bd457878181518110613b4157613b41614c04565b60209081029190910101516040516370a0823160e01b81523060048201526001600160a01b03909116906370a0823190602401602060405180830381865afa158015613b91573d6000803e3d6000fd5b505050506040513d601f19601f82011682018060405250810190613bb59190614d8f565b838281518110613bc757613bc7614c04565b6020026020010181815250505b80613bde81614c48565b9150506139ee565b50613bf081614000565b6000805b86811015613e0a57828181518110613c0e57613c0e614c04565b6020026020010151600014613dd157838181518110613c2f57613c2f614c04565b6020026020010151898281518110613c4957613c49614c04565b60209081029190910101516040516370a0823160e01b81523060048201526001600160a01b03909116906370a0823190602401602060405180830381865afa158015613c99573d6000803e3d6000fd5b505050506040513d601f19601f82011682018060405250810190613cbd9190614d8f565b613cc79190614d31565b848281518110613cd957613cd9614c04565b602002602001018181525050613d26613cfa6000546001600160a01b031690565b858381518110613d0c57613d0c614c04565b60200260200101518b848151811061111757611117614c04565b6000838281518110613d3a57613d3a614c04565b6020026020010151898381518110613d5457613d54614c04565b6020026020010151613d669190614d31565b9050888281518110613d7a57613d7a614c04565b602002602001015181878481518110613d9557613d95614c04565b6020026020010151613da79190614d48565b613db191906150ca565b868381518110613dc357613dc3614c04565b602002602001018181525050505b848181518110613de357613de3614c04565b602002602001015182613df69190614c30565b915080613e0281614c48565b915050613bf4565b50613e158482612786565b7f19b6b36dbef13cbe025e192eee2e5528d4a90ac8ce2b7519c5f527ea9803ee5e8284877f00000000000000000000000000000000000000000000000000000000000000006001600160a01b031663f89f27ed6040518163ffffffff1660e01b8152600401600060405180830381865afa158015613e97573d6000803e3d6000fd5b505050506040513d6000823e601f3d908101601f19168201604052613ebf9190810190614bcf565b6040516133fe9493929190615125565b6000613ee2826301ffc9a760e01b613f02565b80156127805750613efb826001600160e01b0319613f02565b1592915050565b604080516001600160e01b0319831660248083019190915282518083039091018152604490910182526020810180517bffffffffffffffffffffffffffffffffffffffffffffffffffffffff166301ffc9a760e01b179052905160009190829081906001600160a01b0387169061753090613f7e908690615172565b6000604051808303818686fa925050503d8060008114613fba576040519150601f19603f3d011682016040523d82523d6000602084013e613fbf565b606091505b5091509150602081511015613fda5760009350505050612780565b818015613ff6575080806020019051810190613ff69190614da8565b9695505050505050565b6000815167ffffffffffffffff81111561401c5761401c614af9565b604051908082528060200260200182016040528015614045578160200160208202803683370190505b509050614053826000614143565b6118f9816002614143565b60006140b3826040518060400160405280602081526020017f5361666545524332303a206c6f772d6c6576656c2063616c6c206661696c6564815250856001600160a01b03166145a19092919063ffffffff16565b80519091501561305c57808060200190518101906140d19190614da8565b61305c5760405162461bcd60e51b815260206004820152602a60248201527f5361666545524332303a204552433230206f7065726174696f6e20646964206e60448201527f6f742073756363656564000000000000000000000000000000000000000000006064820152608401610716565b815160008167ffffffffffffffff81111561416057614160614af9565b6040519080825280602002602001820160405280156141b257816020015b60408051608081018252600080825260208083018290529282018190526060820152825260001990920191018161417e5790505b50905060006141bf611e92565b90507f000000000000000000000000000000000000000000000000000000000000000060005b848110156142f4578584828151811061420057614200614c04565b602002602001015160000190600281111561421d5761421d614e05565b9081600281111561423057614230614e05565b815250508184828151811061424757614247614c04565b6020026020010151602001818152505082818151811061426957614269614c04565b602002602001015184828151811061428357614283614c04565b6020026020010151604001906001600160a01b031690816001600160a01b0316815250508681815181106142b9576142b9614c04565b60200260200101518482815181106142d3576142d3614c04565b602090810291909101015160600152806142ec81614c48565b9150506141e5565b50604051637362304960e11b81526001600160a01b037f0000000000000000000000000000000000000000000000000000000000000000169063e6c460929061434190869060040161518e565b600060405180830381600087803b15801561435b57600080fd5b505af115801561436f573d6000803e3d6000fd5b50505050505050505050565b6040516001600160a01b03808516602483015283166044820152606481018290526143b39085906323b872dd60e01b90608401613010565b50505050565b604051636eb1769f60e11b81523060048201526001600160a01b0383811660248301526000919085169063dd62ed3e90604401602060405180830381865afa158015614409573d6000803e3d6000fd5b505050506040513d601f19601f8201168201806040525081019061442d9190614d8f565b9050818110156144a55760405162461bcd60e51b815260206004820152602960248201527f5361666545524332303a2064656372656173656420616c6c6f77616e6365206260448201527f656c6f77207a65726f00000000000000000000000000000000000000000000006064820152608401610716565b6040516001600160a01b038416602482015282820360448201819052906144d990869063095ea7b360e01b90606401613010565b5050505050565b604051636eb1769f60e11b81523060048201526001600160a01b038381166024830152600091839186169063dd62ed3e90604401602060405180830381865afa158015614531573d6000803e3d6000fd5b505050506040513d601f19601f820116820180604052508101906145559190614d8f565b61455f9190614c30565b6040516001600160a01b0385166024820152604481018290529091506143b390859063095ea7b360e01b90606401613010565b6000818310612a13578161277d565b60606145b084846000856145b8565b949350505050565b6060824710156146305760405162461bcd60e51b815260206004820152602660248201527f416464726573733a20696e73756666696369656e742062616c616e636520666f60448201527f722063616c6c00000000000000000000000000000000000000000000000000006064820152608401610716565b6001600160a01b0385163b6146875760405162461bcd60e51b815260206004820152601d60248201527f416464726573733a2063616c6c20746f206e6f6e2d636f6e74726163740000006044820152606401610716565b600080866001600160a01b031685876040516146a39190615172565b60006040518083038185875af1925050503d80600081146146e0576040519150601f19603f3d011682016040523d82523d6000602084013e6146e5565b606091505b50915091506146f5828286614700565b979650505050505050565b6060831561470f575081612bbc565b82511561471f5782518084602001fd5b8160405162461bcd60e51b815260040161071691906149f2565b508054600082559060005260206000209081019061364291906147a2565b828054828255906000526020600020908101928215614792579160200282015b82811115614792578251825591602001919060010190614777565b5061479e9291506147a2565b5090565b5b8082111561479e57600081556001016147a3565b600081518084526020808501945080840160005b838110156147f05781516001600160a01b0316875295820195908201906001016147cb565b509495945050505050565b600081518084526020808501945080840160005b838110156147f05781518752958201959082019060010161480f565b60608152600061483e60608301866147b7565b828103602084015261485081866147fb565b915050826040830152949350505050565b60008083601f84011261487357600080fd5b50813567ffffffffffffffff81111561488b57600080fd5b6020830191508360208260061b85010111156148a657600080fd5b9250929050565b600080600080606085870312156148c357600080fd5b843567ffffffffffffffff8111156148da57600080fd5b6148e687828801614861565b90989097506020870135966040013595509350505050565b6000806020838503121561491157600080fd5b823567ffffffffffffffff81111561492857600080fd5b61493485828601614861565b90969095509350505050565b60006020828403121561495257600080fd5b5035919050565b6001600160a01b038116811461364257600080fd5b6000806040838503121561498157600080fd5b823561498c81614959565b946020939093013593505050565b60005b838110156149b557818101518382015260200161499d565b838111156143b35750506000910152565b600081518084526149de81602086016020860161499a565b601f01601f19169290920160200192915050565b60208152600061277d60208301846149c6565b600060208284031215614a1757600080fd5b8135612bbc81614959565b60208152600061277d60208301846147b7565b60208152600061277d60208301846147fb565b60008083601f840112614a5a57600080fd5b50813567ffffffffffffffff811115614a7257600080fd5b6020830191508360208260051b85010111156148a657600080fd5b60008060008060408587031215614aa357600080fd5b843567ffffffffffffffff80821115614abb57600080fd5b614ac788838901614a48565b90965094506020870135915080821115614ae057600080fd5b50614aed87828801614a48565b95989497509550505050565b634e487b7160e01b600052604160045260246000fd5b604051601f8201601f1916810167ffffffffffffffff81118282101715614b3857614b38614af9565b604052919050565b600067ffffffffffffffff821115614b5a57614b5a614af9565b5060051b60200190565b600082601f830112614b7557600080fd5b81516020614b8a614b8583614b40565b614b0f565b82815260059290921b84018101918181019086841115614ba957600080fd5b8286015b84811015614bc45780518352918301918301614bad565b509695505050505050565b600060208284031215614be157600080fd5b815167ffffffffffffffff811115614bf857600080fd5b6145b084828501614b64565b634e487b7160e01b600052603260045260246000fd5b634e487b7160e01b600052601160045260246000fd5b60008219821115614c4357614c43614c1a565b500190565b6000600019821415614c5c57614c5c614c1a565b5060010190565b600080600060608486031215614c7857600080fd5b835167ffffffffffffffff80821115614c9057600080fd5b818601915086601f830112614ca457600080fd5b81516020614cb4614b8583614b40565b82815260059290921b8401810191818101908a841115614cd357600080fd5b948201945b83861015614cfa578551614ceb81614959565b82529482019490820190614cd8565b91890151919750909350505080821115614d1357600080fd5b50614d2086828701614b64565b925050604084015190509250925092565b600082821015614d4357614d43614c1a565b500390565b6000816000190483118215151615614d6257614d62614c1a565b500290565b838152826020820152606060408201526000614d8660608301846147fb565b95945050505050565b600060208284031215614da157600080fd5b5051919050565b600060208284031215614dba57600080fd5b81518015158114612bbc57600080fd5b600181811c90821680614dde57607f821691505b60208210811415614dff57634e487b7160e01b600052602260045260246000fd5b50919050565b634e487b7160e01b600052602160045260246000fd5b600060048410614e2d57614e2d614e05565b838252604060208301526145b060408301846147fb565b848152600060206001600160a01b03808716828501528086166040850152506080606084015261010083018451608080860152818151808452610120870191508483019350600092505b80831015614eb95783516001600160a01b031682526020820191508484019350600183019250614e8e565b50838701519350607f199250828682030160a0870152614ed981856147fb565b935050506040850151818584030160c0860152614ef683826149c6565b925050506060840151614bc460e085018215159052565b81835260007f07ffffffffffffffffffffffffffffffffffffffffffffffffffffffffffffff831115614f3f57600080fd5b8260051b8083602087013760009401602001938452509192915050565b8183526000602080850194508260005b858110156147f0578135614f7f81614959565b6001600160a01b031687529582019590820190600101614f6c565b6001600160a01b0386811682526060602080840182905283820187905260009260809182860160058a901b870184018b875b8c81101561508b57898303607f190184528135368f9003609e19018112614ff257600080fd5b8e0180358452858101358685015260a060408083013561501181614959565b891690860152818a01358a8601528882013536839003601e1901811261503657600080fd5b8201803567ffffffffffffffff81111561504f57600080fd5b8060051b360384131561506157600080fd5b828b880152615075838801828b8501614f0d565b9789019796505050928601925050600101614fcc565b505087810360408901526150a0818a8c614f5c565b9d9c50505050505050505050505050565b8281526040602082015260006145b060408301846147fb565b6000826150e757634e487b7160e01b600052601260045260246000fd5b500490565b6060815260006150ff60608301866147fb565b828103602084015261511181866147fb565b90508281036040840152613ff681856147fb565b60808152600061513860808301876147fb565b828103602084015261514a81876147fb565b9050828103604084015261515e81866147fb565b905082810360608401526146f581856147fb565b6000825161518481846020870161499a565b9190910192915050565b602080825282518282018190526000919060409081850190868401855b828110156151fe5781518051600381106151c7576151c7614e05565b85528087015187860152858101516001600160a01b03168686015260609081015190850152608090930192908501906001016151ab565b509197965050505050505056fe5265656e7472616e637947756172643a207265656e7472616e742063616c6c004f776e61626c653a2063616c6c6572206973206e6f7420746865206f776e6572a2646970667358221220de33a6e601edc52aadacdb18eb8ae8f99616071f91d71fae5af2b3ded3f4758f64736f6c634300080b0033",
  "devdoc": {
    "details": "Vault owner is the asset owner.",
    "events": {
      "CancelWeightUpdates(uint256[])": {
        "params": {
          "weights": "Current weights of tokens."
        }
      },
      "Created(address,string,string,address[],uint256[],uint256,address,address,uint256,uint256,address,string)": {
        "params": {
          "description": "Vault description.",
          "factory": "Balancer Managed Pool factory address.",
          "guardian": "Vault guardian address.",
          "managementFee": "Management fee earned proportion per second.",
          "merkleOrchard": "Merkle Orchard address.",
          "name": "Name of Pool Token.",
          "noticePeriod": "Notice period (in seconds).",
          "swapFeePercentage": "Pool swap fee.",
          "symbol": "Symbol of Pool Token.",
          "tokens": "Token addresses.",
          "validator": "Withdrawal validator contract address.",
          "weights": "Token weights."
        }
      },
      "Deposit(uint256[],uint256[],uint256[])": {
        "params": {
          "amounts": "Deposited amounts.",
          "requestedAmounts": "Requested amounts to deposit.",
          "weights": "Token weights following deposit."
        }
      },
      "DistributeGuardianFees(address,uint256[])": {
        "params": {
          "amounts": "Withdrawn amounts.",
          "guardian": "Guardian address."
        }
      },
      "EnabledTradingWithWeights(uint256,uint256[])": {
        "params": {
          "time": "timestamp of updates.",
          "weights": "Target weights of tokens."
        }
      },
      "FinalizationInitiated(uint256)": {
        "params": {
          "noticeTimeoutAt": "Timestamp for notice timeout."
        }
      },
      "Finalized(address,uint256[])": {
        "params": {
          "amounts": "Returned token amounts.",
          "caller": "Address of finalizer."
        }
      },
      "GuardianChanged(address,address)": {
        "params": {
          "guardian": "New guardian address.",
          "previousGuardian": "Previous guardian address."
        }
      },
      "OwnershipTransferCanceled(address,address)": {
        "params": {
          "canceledOwner": "Address of canceled owner.",
          "currentOwner": "Address of current owner."
        }
      },
      "OwnershipTransferOffered(address,address)": {
        "params": {
          "currentOwner": "Address of current owner.",
          "pendingOwner": "Address of pending owner."
        }
      },
      "SetSwapEnabled(bool)": {
        "params": {
          "swapEnabled": "New state of swap."
        }
      },
      "SetSwapFee(uint256)": {
        "params": {
          "swapFee": "New swap fee."
        }
      },
      "UpdateWeightsGradually(uint256,uint256,uint256[])": {
        "params": {
          "endTime": "End timestamp of updates.",
          "startTime": "Start timestamp of updates.",
          "weights": "Target weights of tokens."
        }
      },
      "Withdraw(uint256[],uint256[],uint256[],uint256[])": {
        "params": {
          "allowances": "Token withdrawal allowances.",
          "amounts": "Withdrawn amounts.",
          "requestedAmounts": "Requested amounts to withdraw.",
          "weights": "Token weights following withdrawal."
        }
      }
    },
    "kind": "dev",
    "methods": {
      "cancelWeightUpdates()": {
        "details": "Keep calculated weights from the schedule at the time."
      },
      "claimGuardianFees()": {
        "details": "This function shouldn't be called too frequently."
      },
      "claimRewards((uint256,uint256,address,uint256,bytes32[])[],address[])": {
        "details": "It calls claimDistributions() function of Balancer MerkleOrchard.      Once this function is called, the tokens will be transferred to      the Vault and it can be distributed via sweep function.",
        "params": {
          "claims": "An array of claims provided as a claim struct.        See https://docs.balancer.fi/products/merkle-orchard/claiming-tokens#claiming-from-the-contract-directly.",
          "tokens": "An array consisting of tokens to be claimed."
        }
      },
      "constructor": {
        "details": "Tokens should be unique. Validator should conform to interface.      These are checked by Balancer in internal transactions:       If tokens are sorted in ascending order.       If swapFeePercentage is greater than minimum and less than maximum.       If total sum of weights is one.",
        "params": {
          "vaultParams": "Struct vault parameter."
        }
      },
      "deposit((address,uint256)[])": {
        "details": "It calls updateWeights() function      which cancels current active weights change schedule.",
        "params": {
          "tokenWithAmount": "Deposit tokens with amount."
        }
      },
      "depositIfBalanceUnchanged((address,uint256)[])": {
        "details": "It calls updateWeights() function      which cancels current active weights change schedule.      It reverts if balances were updated in the current block.",
        "params": {
          "tokenWithAmount": "Deposit token with amount."
        }
      },
      "enableTradingWithWeights((address,uint256)[])": {
        "details": "These are checked by Balancer in internal transactions:       If weight length and token length match.       If total sum of weights is one.       If weight is greater than minimum.",
        "params": {
          "tokenWithWeight": "Tokens with new weights."
        }
      },
      "getHoldings()": {
        "returns": {
          "amounts": "Token balances in underlying pool"
        }
      },
      "getNormalizedWeights()": {
        "returns": {
          "_0": "Normalized weights of tokens on Balancer pool."
        }
      },
      "getSwapFee()": {
        "returns": {
          "_0": "Swap fee from underlying Balancer pool."
        }
      },
      "getTokens()": {
        "returns": {
          "tokens": "IERC20 tokens of Balancer pool."
        }
      },
      "getTokensData()": {
        "returns": {
          "_0": "IERC20 tokens of Balancer pool.",
          "_1": "Balances of tokens of Balancer pool.",
          "_2": "Last updated Blocknumber."
        }
      },
      "holding(uint256)": {
        "returns": {
          "_0": "Token balance in underlying pool."
        }
      },
      "initialDeposit((address,uint256)[])": {
        "details": "Initial deposit must be performed before      calling withdraw() or deposit() functions.      It enables trading, so weights and balances should be in line      with market spot prices, otherwise there is a significant risk      of arbitrage.      This is checked by Balancer in internal transactions:       If token amount is not zero when join pool.",
        "params": {
          "tokenWithAmount": "Deposit tokens with amount."
        }
      },
      "isSwapEnabled()": {
        "returns": {
          "_0": "If public swap is turned on, returns true, otherwise false."
        }
      },
      "owner()": {
        "details": "Returns the address of the current owner."
      },
      "setSwapFee(uint256)": {
        "details": "These are checked by Balancer in internal transactions:       If new swap fee is less than maximum.       If new swap fee is greater than minimum."
      },
      "transferOwnership(address)": {
        "details": "It disables immediate transfer of ownership"
      },
      "updateWeightsGradually((address,uint256)[],uint256,uint256)": {
        "details": "These are checked by Balancer in internal transactions:       If target weight length and token length match.       If total sum of target weights is one.       If target weight is greater than minimum.",
        "params": {
          "endTime": "Timestamp at which the weights should reach target values.",
          "startTime": "Timestamp at which weight movement should start.",
          "tokenWithWeight": "Tokens with target weights."
        }
      },
      "withdraw((address,uint256)[])": {
        "details": "It calls updateWeights() function      which cancels current active weights change schedule.",
        "params": {
          "tokenWithAmount": "Requested tokens with amount."
        }
      },
      "withdrawIfBalanceUnchanged((address,uint256)[])": {
        "details": "It calls updateWeights() function      which cancels current active weights change schedule.      It reverts if balances were updated in the current block.",
        "params": {
          "tokenWithAmount": "Requested tokens with amount."
        }
      }
    },
    "stateVariables": {
      "MAX_MANAGEMENT_FEE": {
        "details": "0.0000001% per second, i.e. 3.1536% per year.      0.0000001% * (365 * 24 * 60 * 60) = 3.1536%"
      },
      "MAX_WEIGHT_CHANGE_RATIO": {
        "details": "It's the increment/decrement factor per one second.      increment/decrement factor per n seconds: Fn = f * n      Weight growth range for n seconds: [1 / Fn - 1, Fn - 1]      E.g. increment/decrement factor per 2000 seconds is 2      Weight growth range for 2000 seconds is [-50%, 100%]"
      },
      "UNSET_GUARDIAN_ADDRESS": {
        "details": "Address to represent unset guardian in events."
      },
      "description": {
        "details": "string cannot be immutable bytecode but only set in constructor"
      },
      "managementFee": {
        "details": "10**18 is 100%"
      }
    },
    "title": "Risk-managed treasury vault.",
    "version": 1
  },
  "userdoc": {
    "errors": {
      "Aera__ValueLengthIsNotSame(uint256,uint256)": [
        {
          "notice": "ERRORS ///"
        }
      ]
    },
    "events": {
      "CancelWeightUpdates(uint256[])": {
        "notice": "Emitted when cancelWeightUpdates is called."
      },
      "Created(address,string,string,address[],uint256[],uint256,address,address,uint256,uint256,address,string)": {
        "notice": "Emitted when the vault is created."
      },
      "Deposit(uint256[],uint256[],uint256[])": {
        "notice": "Emitted when tokens are deposited."
      },
      "DistributeGuardianFees(address,uint256[])": {
        "notice": "Emitted when management fees are withdrawn."
      },
      "EnabledTradingWithWeights(uint256,uint256[])": {
        "notice": "Emitted when enableTradingWithWeights is called."
      },
      "FinalizationInitiated(uint256)": {
        "notice": "Emitted when initiateFinalization is called."
      },
      "Finalized(address,uint256[])": {
        "notice": "Emitted when vault is finalized."
      },
      "GuardianChanged(address,address)": {
        "notice": "Emitted when guardian is changed."
      },
      "OwnershipTransferCanceled(address,address)": {
        "notice": "Emitted when cancelOwnershipTransfer is called."
      },
      "OwnershipTransferOffered(address,address)": {
        "notice": "Emitted when transferOwnership is called."
      },
      "SetSwapEnabled(bool)": {
        "notice": "Emitted when swap is enabled/disabled."
      },
      "SetSwapFee(uint256)": {
        "notice": "Emitted when swap fee is updated."
      },
      "UpdateWeightsGradually(uint256,uint256,uint256[])": {
        "notice": "Emitted when updateWeightsGradually is called."
      },
      "Withdraw(uint256[],uint256[],uint256[],uint256[])": {
        "notice": "Emitted when tokens are withdrawn."
      }
    },
    "kind": "user",
    "methods": {
      "acceptOwnership()": {
        "notice": "Accept ownership"
      },
      "bVault()": {
        "notice": "Balancer Vault."
      },
      "cancelOwnershipTransfer()": {
        "notice": "Cancel current pending ownership transfer"
      },
      "cancelWeightUpdates()": {
        "notice": "Cancel the active weight update schedule."
      },
      "claimGuardianFees()": {
        "notice": "Claim guardian fee."
      },
      "claimRewards((uint256,uint256,address,uint256,bytes32[])[],address[])": {
        "notice": "Claim Balancer rewards."
      },
      "constructor": {
        "notice": "Initialize the contract by deploying new Balancer pool using the provided factory."
      },
      "deposit((address,uint256)[])": {
        "notice": "Deposit tokens into vault."
      },
      "depositIfBalanceUnchanged((address,uint256)[])": {
        "notice": "Deposit tokens into vault."
      },
      "description()": {
        "notice": "Describes vault purpose and modelling assumptions for differentiating between vaults"
      },
      "disableTrading()": {
        "notice": "Disable swap."
      },
      "enableTradingRiskingArbitrage()": {
        "notice": "Enable swap with current weights."
      },
      "enableTradingWithWeights((address,uint256)[])": {
        "notice": "Enable swap with updating weights."
      },
      "finalize()": {
        "notice": "Destroy vault and returns all funds to treasury owner."
      },
      "finalized()": {
        "notice": "Indicates that the Vault has been finalized"
      },
      "getHoldings()": {
        "notice": "Underlying token balances."
      },
      "getNormalizedWeights()": {
        "notice": "Get token weights."
      },
      "getSwapFee()": {
        "notice": "Get swap fee."
      },
      "getTokens()": {
        "notice": "Get IERC20 Tokens Balancer Pool."
      },
      "getTokensData()": {
        "notice": "Get Token Data of Balancer Pool."
      },
      "guardian()": {
        "notice": "Controls vault parameters."
      },
      "guardiansFee(address,uint256)": {
        "notice": "Fee earned amount for each guardian"
      },
      "guardiansFeeTotal(uint256)": {
        "notice": "Total guardian fee earned amount"
      },
      "holding(uint256)": {
        "notice": "Balance of token with given index."
      },
      "initialDeposit((address,uint256)[])": {
        "notice": "Initialize Vault with first deposit."
      },
      "initialized()": {
        "notice": "Indicates that the Vault has been initialized"
      },
      "initiateFinalization()": {
        "notice": "Initiate vault destruction and return all funds to treasury owner."
      },
      "isSwapEnabled()": {
        "notice": "Check if vault trading is enabled."
      },
      "lastFeeCheckpoint()": {
        "notice": "Last timestamp where guardian fee index was locked."
      },
      "lastSwapFeeCheckpoint()": {
        "notice": "Last timestamp where swap fee was updated."
      },
      "managementFee()": {
        "notice": "Management fee earned proportion per second."
      },
      "merkleOrchard()": {
        "notice": "Balancer Merkle Orchard."
      },
      "noticePeriod()": {
        "notice": "Notice period for vault termination (in seconds)."
      },
      "noticeTimeoutAt()": {
        "notice": "Timestamp when notice elapses or 0 if not yet set"
      },
      "pendingOwner()": {
        "notice": "Pending account to accept ownership of vault."
      },
      "pool()": {
        "notice": "Balancer Managed Pool."
      },
      "poolController()": {
        "notice": "Balancer Managed Pool Controller."
      },
      "poolId()": {
        "notice": "Pool ID of Balancer pool on Vault."
      },
      "renounceOwnership()": {
        "notice": "Disable ownership renounceable"
      },
      "setGuardian(address)": {
        "notice": "Change guardian."
      },
      "setSwapFee(uint256)": {
        "notice": "Change swap fee."
      },
      "sweep(address,uint256)": {
        "notice": "Withdraw any tokens accidentally sent to vault."
      },
      "transferOwnership(address)": {
        "notice": "Offer ownership to another address"
      },
      "updateWeightsGradually((address,uint256)[],uint256,uint256)": {
        "notice": "Initiate weight move to target in given update window."
      },
      "validator()": {
        "notice": "Verifies withdraw limits."
      },
      "withdraw((address,uint256)[])": {
        "notice": "Withdraw tokens up to requested amounts."
      },
      "withdrawIfBalanceUnchanged((address,uint256)[])": {
        "notice": "Withdraw tokens up to requested amounts."
      }
    },
    "notice": "Managed n-asset vault that supports withdrawals         in line with a pre-defined validator contract.",
    "version": 1
  },
  "storageLayout": {
    "storage": [
      {
        "astId": 6684,
        "contract": "contracts/v1/AeraVaultV1.sol:AeraVaultV1",
        "label": "_owner",
        "offset": 0,
        "slot": "0",
        "type": "t_address"
      },
      {
        "astId": 6884,
        "contract": "contracts/v1/AeraVaultV1.sol:AeraVaultV1",
        "label": "_status",
        "offset": 0,
        "slot": "1",
        "type": "t_uint256"
      },
      {
        "astId": 98,
        "contract": "contracts/v1/AeraVaultV1.sol:AeraVaultV1",
        "label": "description",
        "offset": 0,
        "slot": "2",
        "type": "t_string_storage"
      },
      {
        "astId": 101,
        "contract": "contracts/v1/AeraVaultV1.sol:AeraVaultV1",
        "label": "initialized",
        "offset": 0,
        "slot": "3",
        "type": "t_bool"
      },
      {
        "astId": 104,
        "contract": "contracts/v1/AeraVaultV1.sol:AeraVaultV1",
        "label": "finalized",
        "offset": 1,
        "slot": "3",
        "type": "t_bool"
      },
      {
        "astId": 107,
        "contract": "contracts/v1/AeraVaultV1.sol:AeraVaultV1",
        "label": "guardian",
        "offset": 2,
        "slot": "3",
        "type": "t_address"
      },
      {
        "astId": 110,
        "contract": "contracts/v1/AeraVaultV1.sol:AeraVaultV1",
        "label": "pendingOwner",
        "offset": 0,
        "slot": "4",
        "type": "t_address"
      },
      {
        "astId": 113,
        "contract": "contracts/v1/AeraVaultV1.sol:AeraVaultV1",
        "label": "noticeTimeoutAt",
        "offset": 0,
        "slot": "5",
        "type": "t_uint256"
      },
      {
        "astId": 121,
        "contract": "contracts/v1/AeraVaultV1.sol:AeraVaultV1",
        "label": "lastFeeCheckpoint",
        "offset": 0,
        "slot": "6",
        "type": "t_uint256"
      },
      {
        "astId": 127,
        "contract": "contracts/v1/AeraVaultV1.sol:AeraVaultV1",
        "label": "guardiansFee",
        "offset": 0,
        "slot": "7",
        "type": "t_mapping(t_address,t_array(t_uint256)dyn_storage)"
      },
      {
        "astId": 131,
        "contract": "contracts/v1/AeraVaultV1.sol:AeraVaultV1",
        "label": "guardiansFeeTotal",
        "offset": 0,
        "slot": "8",
        "type": "t_array(t_uint256)dyn_storage"
      },
      {
        "astId": 134,
        "contract": "contracts/v1/AeraVaultV1.sol:AeraVaultV1",
        "label": "lastSwapFeeCheckpoint",
        "offset": 0,
        "slot": "9",
        "type": "t_uint256"
      }
    ],
    "types": {
      "t_address": {
        "encoding": "inplace",
        "label": "address",
        "numberOfBytes": "20"
      },
      "t_array(t_uint256)dyn_storage": {
        "base": "t_uint256",
        "encoding": "dynamic_array",
        "label": "uint256[]",
        "numberOfBytes": "32"
      },
      "t_bool": {
        "encoding": "inplace",
        "label": "bool",
        "numberOfBytes": "1"
      },
      "t_mapping(t_address,t_array(t_uint256)dyn_storage)": {
        "encoding": "mapping",
        "key": "t_address",
        "label": "mapping(address => uint256[])",
        "numberOfBytes": "32",
        "value": "t_array(t_uint256)dyn_storage"
      },
      "t_string_storage": {
        "encoding": "bytes",
        "label": "string",
        "numberOfBytes": "32"
      },
      "t_uint256": {
        "encoding": "inplace",
        "label": "uint256",
        "numberOfBytes": "32"
      }
    }
  }
}