{
  "address": "0x14c7F6fC66EcA3954894CF54469CF6d7f2076Aa2",
  "abi": [
    {
      "inputs": [
        {
          "internalType": "address",
          "name": "baseFactory",
          "type": "address"
        }
      ],
      "stateMutability": "nonpayable",
      "type": "constructor"
    },
    {
      "anonymous": false,
      "inputs": [
        {
          "indexed": true,
          "internalType": "address",
          "name": "pool",
          "type": "address"
        },
        {
          "indexed": true,
          "internalType": "address",
          "name": "poolController",
          "type": "address"
        }
      ],
      "name": "ManagedPoolCreated",
      "type": "event"
    },
    {
      "inputs": [],
      "name": "baseManagedPoolFactory",
      "outputs": [
        {
          "internalType": "address",
          "name": "",
          "type": "address"
        }
      ],
      "stateMutability": "view",
      "type": "function"
    },
    {
      "inputs": [
        {
          "components": [
            {
              "internalType": "contract IVault",
              "name": "vault",
              "type": "address"
            },
            {
              "internalType": "string",
              "name": "name",
              "type": "string"
            },
            {
              "internalType": "string",
              "name": "symbol",
              "type": "string"
            },
            {
              "internalType": "contract IERC20[]",
              "name": "tokens",
              "type": "address[]"
            },
            {
              "internalType": "uint256[]",
              "name": "normalizedWeights",
              "type": "uint256[]"
            },
            {
              "internalType": "address[]",
              "name": "assetManagers",
              "type": "address[]"
            },
            {
              "internalType": "uint256",
              "name": "swapFeePercentage",
              "type": "uint256"
            },
            {
              "internalType": "uint256",
              "name": "pauseWindowDuration",
              "type": "uint256"
            },
            {
              "internalType": "uint256",
              "name": "bufferPeriodDuration",
              "type": "uint256"
            },
            {
              "internalType": "address",
              "name": "owner",
              "type": "address"
            },
            {
              "internalType": "bool",
              "name": "swapEnabledOnStart",
              "type": "bool"
            },
            {
              "internalType": "bool",
              "name": "mustAllowlistLPs",
              "type": "bool"
            },
            {
              "internalType": "uint256",
              "name": "managementSwapFeePercentage",
              "type": "uint256"
            }
          ],
          "internalType": "struct ManagedPool.NewPoolParams",
          "name": "poolParams",
          "type": "tuple"
        },
        {
          "components": [
            {
              "internalType": "bool",
              "name": "canTransferOwnership",
              "type": "bool"
            },
            {
              "internalType": "bool",
              "name": "canChangeSwapFee",
              "type": "bool"
            },
            {
              "internalType": "bool",
              "name": "canUpdateMetadata",
              "type": "bool"
            }
          ],
          "internalType": "struct BasePoolController.BasePoolRights",
          "name": "basePoolRights",
          "type": "tuple"
        },
        {
          "components": [
            {
              "internalType": "bool",
              "name": "canChangeWeights",
              "type": "bool"
            },
            {
              "internalType": "bool",
              "name": "canDisableSwaps",
              "type": "bool"
            },
            {
              "internalType": "bool",
              "name": "canSetMustAllowlistLPs",
              "type": "bool"
            },
            {
              "internalType": "bool",
              "name": "canSetCircuitBreakers",
              "type": "bool"
            },
            {
              "internalType": "bool",
              "name": "canChangeTokens",
              "type": "bool"
            }
          ],
          "internalType": "struct ManagedPoolController.ManagedPoolRights",
          "name": "managedPoolRights",
          "type": "tuple"
        },
        {
          "internalType": "uint256",
          "name": "minWeightChangeDuration",
          "type": "uint256"
        }
      ],
      "name": "create",
      "outputs": [
        {
          "internalType": "address",
          "name": "pool",
          "type": "address"
        }
      ],
      "stateMutability": "nonpayable",
      "type": "function"
    },
    {
      "inputs": [
        {
          "internalType": "address",
          "name": "pool",
          "type": "address"
        }
      ],
      "name": "isPoolFromFactory",
      "outputs": [
        {
          "internalType": "bool",
          "name": "",
          "type": "bool"
        }
      ],
      "stateMutability": "view",
      "type": "function"
    }
  ],
  "transactionHash": "0x182b973e7208c61a0f9e1f6553b243145a7ab9e2cb5b8a618d0c7fb31f7cdcc0",
  "args": [
    "0x8ec0F4bB608b4B2334374F16A3B0568B2e347C13"
  ],
  "bytecode": "0x60a060405234801561001057600080fd5b506040516124a23803806124a283398101604081905261002f91610044565b60601b6001600160601b031916608052610072565b600060208284031215610055578081fd5b81516001600160a01b038116811461006b578182fd5b9392505050565b60805160601c61240f6100936000398060d75280610184525061240f6000f3fe60806040523480156200001157600080fd5b5060043610620000465760003560e01c80636634b753146200004b57806399314a21146200007a578063abfa6b7c1462000093575b600080fd5b620000626200005c3660046200055e565b620000aa565b60405162000071919062000897565b60405180910390f35b62000084620000d5565b60405162000071919062000876565b62000084620000a4366004620005a3565b620000f9565b73ffffffffffffffffffffffffffffffffffffffff1660009081526020819052604090205460ff1690565b7f000000000000000000000000000000000000000000000000000000000000000081565b600080848484336040516200010e9062000320565b6200011d9493929190620008a2565b604051809103906000f0801580156200013a573d6000803e3d6000fd5b5073ffffffffffffffffffffffffffffffffffffffff8082166101208901526040517f1c6bb5fd0000000000000000000000000000000000000000000000000000000081529192507f00000000000000000000000000000000000000000000000000000000000000001690631c6bb5fd90620001bb9089906004016200098b565b602060405180830381600087803b158015620001d657600080fd5b505af1158015620001eb573d6000803e3d6000fd5b505050506040513d601f19601f8201168201806040525081019062000211919062000584565b6040517fc4d66de800000000000000000000000000000000000000000000000000000000815290925073ffffffffffffffffffffffffffffffffffffffff82169063c4d66de8906200026890859060040162000876565b600060405180830381600087803b1580156200028357600080fd5b505af115801562000298573d6000803e3d6000fd5b50505073ffffffffffffffffffffffffffffffffffffffff80841660008181526020819052604080822080547fffffffffffffffffffffffffffffffffffffffffffffffffffffffffffffff0016600117905551928516935090917fc012cad94142b9dc7a12bdf812a34994222bbd205cfc75dafeadd0c9ee9bc7d99190a350949350505050565b6118918062000b4983390190565b80356200033b8162000b22565b92915050565b600082601f83011262000352578081fd5b813562000369620003638262000b01565b62000ad9565b8181529150602080830190848101818402860182018710156200038b57600080fd5b60005b84811015620003b7578135620003a48162000b22565b845292820192908201906001016200038e565b505050505092915050565b600082601f830112620003d3578081fd5b8135620003e4620003638262000b01565b8181529150602080830190848101818402860182018710156200040657600080fd5b60005b84811015620003b75781356200041f8162000b22565b8452928201929082019060010162000409565b600082601f83011262000443578081fd5b813562000454620003638262000b01565b8181529150602080830190848101818402860182018710156200047657600080fd5b60005b84811015620003b75781358452928201929082019060010162000479565b803580151581146200033b57600080fd5b600082601f830112620004b9578081fd5b813567ffffffffffffffff811115620004d0578182fd5b6200050360207fffffffffffffffffffffffffffffffffffffffffffffffffffffffffffffffe0601f8401160162000ad9565b91508082528360208285010111156200051b57600080fd5b8060208401602084013760009082016020015292915050565b60006060828403121562000546578081fd5b50919050565b600060a0828403121562000546578081fd5b60006020828403121562000570578081fd5b81356200057d8162000b22565b9392505050565b60006020828403121562000596578081fd5b81516200057d8162000b22565b600080600080610140808688031215620005bb578384fd5b853567ffffffffffffffff80821115620005d3578586fd5b81880191506101a080838b031215620005ea578687fd5b620005f58162000ad9565b9050620006038a846200032e565b815260208301358281111562000617578788fd5b620006258b828601620004a8565b6020830152506040830135828111156200063d578788fd5b6200064b8b828601620004a8565b60408301525060608301358281111562000663578788fd5b620006718b828601620003c2565b60608301525060808301358281111562000689578788fd5b620006978b82860162000432565b60808301525060a083013582811115620006af578788fd5b620006bd8b82860162000341565b60a08301525060c083013560c082015260e083013560e0820152610100915081830135828201526101209150620006f78a8385016200032e565b82820152620007098a85850162000497565b848201526101609350620007208a85850162000497565b848201526101809350838301358482015280975050620007448960208a0162000534565b9550620007558960808a016200054c565b96999598509596909501359450505050565b73ffffffffffffffffffffffffffffffffffffffff169052565b6000815180845260208085019450808401835b83811015620007c857815173ffffffffffffffffffffffffffffffffffffffff168752958201959082019060010162000794565b509495945050505050565b6000815180845260208085019450808401835b83811015620007c857815187529582019590820190600101620007e6565b15159052565b60008151808452815b81811015620008315760208185018101518683018201520162000813565b81811115620008435782602083870101525b50601f017fffffffffffffffffffffffffffffffffffffffffffffffffffffffffffffffe0169290920160200192915050565b73ffffffffffffffffffffffffffffffffffffffff91909116815260200190565b901515815260200190565b610140810160208601620008b7818862000497565b1515835260408701620008cb818362000497565b15156020850152620008e1606089018262000497565b15156040850152505060208501620008fa818762000497565b151560608401526040860162000911818362000497565b151560808501526060870191506200092a828262000497565b151560a0850152506080860162000942818362000497565b151560c08501526200095860a088018262000497565b9150506200096a60e084018262000804565b50836101008301526200098261012083018462000767565b95945050505050565b600060208252620009a160208301845162000767565b60208301516101a0806040850152620009bf6101c08501836200080a565b915060408501517fffffffffffffffffffffffffffffffffffffffffffffffffffffffffffffffe080868503016060870152620009fd84836200080a565b9350606087015191508086850301608087015262000a1c848362000781565b935060808701519150808685030160a087015262000a3b8483620007d3565b935060a08701519150808685030160c08701525062000a5b838262000781565b92505060c085015160e085015260e085015161010081818701528087015191505061012081818701528087015191505061014062000a9c8187018362000767565b860151905061016062000ab28682018362000804565b860151905061018062000ac88682018362000804565b959095015193019290925250919050565b60405181810167ffffffffffffffff8111828210171562000af957600080fd5b604052919050565b600067ffffffffffffffff82111562000b18578081fd5b5060209081020190565b73ffffffffffffffffffffffffffffffffffffffff8116811462000b4557600080fd5b5056fe60c06040523480156200001157600080fd5b5060405162001891380380620018918339810160408190526200003491620001cf565b620000408484620000ab565b6080819052600080546001600160a01b0319166001600160a01b038416179055816200007a82600162000132602090811b62000ede17901c565b156200009c57600280546001600160a01b0319166001600160a01b0383161790555b50505060a05250620003069050565b600080620000c4846200013c60201b6200042b1760201c565b9050620001288360600151600662000113866080015160076200011389604001516005620001138c602001516004620001138f6000015160038f6200017d60201b62000ee8179092919060201c565b6200017d60201b62000ee8179092919060201c565b9150505b92915050565b1c60019081161490565b600080620001768360400151600262000113866020015160016200011389600001516000896200017d60201b62000ee8179092919060201c565b9392505050565b60006001821b19841682846200019557600062000198565b60015b60ff16901b17949350505050565b80516001600160a01b03811681146200012c57600080fd5b805180151581146200012c57600080fd5b600080600080848603610140811215620001e7578485fd5b6060811215620001f5578485fd5b620002016060620002df565b6200020d8888620001be565b81526200021e8860208901620001be565b6020820152620002328860408901620001be565b6040820152945060a0605f19820112156200024b578384fd5b506200025860a0620002df565b620002678760608801620001be565b8152620002788760808801620001be565b60208201526200028c8760a08801620001be565b6040820152620002a08760c08801620001be565b6060820152620002b48760e08801620001be565b60808201526101008601519093509150620002d4866101208701620001a6565b905092959194509250565b6040518181016001600160401b0381118282101715620002fe57600080fd5b604052919050565b60805160a05161153f62000352600039806105f35280610b7852508061039b52806103cd5280610a155280610a425280610ba15280610d275280610d545280610d81525061153f6000f3fe608060405234801561001057600080fd5b50600436106101ce5760003560e01c8063914645ee11610104578063c4d66de8116100a2578063de1a10ef11610071578063de1a10ef14610353578063e01af92c1461035b578063f2fde38b1461036e578063fc582d4114610381576101ce565b8063c4d66de814610328578063d50095841461033b578063d69c843214610343578063dd7b9f071461034b576101ce565b8063baca2866116100de578063baca2866146102fd578063bc6b90de14610310578063be14edbb14610318578063c34e58ed14610320576101ce565b8063914645ee146102da578063a9cbee9c146102e2578063aea08d68146102ea576101ce565b80633e569205116101715780635b77155e1161014b5780635b77155e1461028c5780637a5b4f591461029f5780637b749c45146102b457806381788e2b146102c7576101ce565b80633e5692051461025e5780634e71e0c81461027157806350dd6ed914610279576101ce565b806317eca279116101ad57806317eca2791461020e57806326b6264d1461021657806338e9922e146102365780633c9d93b81461024b576101ce565b8062d499c2146101d35780630facaef3146101f157806316f0115b146101f9575b600080fd5b6101db610394565b6040516101e891906113fe565b60405180910390f35b6101db6103c6565b6102016103f3565b6040516101e891906113dd565b61020161040f565b610229610224366004611208565b61042b565b6040516101e89190611409565b6102496102443660046112df565b61046a565b005b610249610259366004611134565b61053b565b61024961026c3660046112f7565b6105c4565b6102496106b4565b6102496102873660046111ba565b61076f565b61024961029a366004611134565b610811565b6102a761087b565b6040516101e89190611412565b6102496102c236600461116c565b61092f565b6102496102d5366004611134565b6109a4565b6101db610a0e565b6101db610a3b565b6102296102f8366004611223565b610a68565b61024961030b366004611134565b610ac2565b610229610b76565b6101db610b9a565b610201610bc7565b610249610336366004611134565b610be3565b610201610d04565b6101db610d20565b6101db610d4d565b6101db610d7a565b61024961036936600461116c565b610da6565b61024961037c366004611134565b610e1b565b61024961038f366004611187565b610e79565b60006103c17f00000000000000000000000000000000000000000000000000000000000000006004610ede565b905090565b60006103c17f00000000000000000000000000000000000000000000000000000000000000006002610ede565b60035473ffffffffffffffffffffffffffffffffffffffff1681565b60015473ffffffffffffffffffffffffffffffffffffffff1690565b6000806104638360400151600261045c8660200151600161045c8960000151600089610ee89092919063ffffffff16565b9190610ee8565b9392505050565b610472610f0f565b61048561047d610b9a565b610158610f38565b6104b033610491610bc7565b73ffffffffffffffffffffffffffffffffffffffff1614610191610f38565b6003546040517f38e9922e00000000000000000000000000000000000000000000000000000000815273ffffffffffffffffffffffffffffffffffffffff909116906338e9922e90610506908490600401611409565b600060405180830381600087803b15801561052057600080fd5b505af1158015610534573d6000803e3d6000fd5b5050505050565b61056633610547610d04565b73ffffffffffffffffffffffffffffffffffffffff16146101aa610f38565b61056e610f0f565b6003546040517f3c9d93b800000000000000000000000000000000000000000000000000000000815273ffffffffffffffffffffffffffffffffffffffff90911690633c9d93b8906105069084906004016113dd565b6105d033610547610d04565b6105d8610f0f565b6105e361047d610a0e565b61062084841015801561061857507f000000000000000000000000000000000000000000000000000000000000000085850310155b61014b610f38565b6003546040517f3e56920500000000000000000000000000000000000000000000000000000000815273ffffffffffffffffffffffffffffffffffffffff90911690633e5692059061067c90879087908790879060040161145c565b600060405180830381600087803b15801561069657600080fd5b505af11580156106aa573d6000803e3d6000fd5b5050505050505050565b60015473ffffffffffffffffffffffffffffffffffffffff166106db338214610191610f38565b6000805460405173ffffffffffffffffffffffffffffffffffffffff808516939216917f8be0079c531659141344cd1fd0a4f28419497f9722a3daafe3b4186f6b6457e091a36000805473ffffffffffffffffffffffffffffffffffffffff9092167fffffffffffffffffffffffff0000000000000000000000000000000000000000928316179055600180549091169055565b61077b33610547610d04565b610783610f0f565b6003546040517f50dd6ed900000000000000000000000000000000000000000000000000000000815273ffffffffffffffffffffffffffffffffffffffff909116906350dd6ed9906107db9085908590600401611425565b600060405180830381600087803b1580156107f557600080fd5b505af1158015610809573d6000803e3d6000fd5b505050505050565b61081d33610547610d04565b610825610f0f565b6003546040517f5b77155e00000000000000000000000000000000000000000000000000000000815273ffffffffffffffffffffffffffffffffffffffff90911690635b77155e906105069084906004016113dd565b60048054604080516020601f60027fffffffffffffffffffffffffffffffffffffffffffffffffffffffffffffffff6101006001881615020190951694909404938401819004810282018101909252828152606093909290918301828280156109255780601f106108fa57610100808354040283529160200191610925565b820191906000526020600020905b81548152906001019060200180831161090857829003601f168201915b5050505050905090565b61093b33610547610d04565b610943610f0f565b61094e61047d610d20565b6003546040517f7b749c4500000000000000000000000000000000000000000000000000000000815273ffffffffffffffffffffffffffffffffffffffff90911690637b749c45906105069084906004016113fe565b6109b033610547610d04565b6109b8610f0f565b6003546040517f81788e2b00000000000000000000000000000000000000000000000000000000815273ffffffffffffffffffffffffffffffffffffffff909116906381788e2b906105069084906004016113dd565b60006103c17f00000000000000000000000000000000000000000000000000000000000000006003610ede565b60006103c17f00000000000000000000000000000000000000000000000000000000000000006007610ede565b600080610a748461042b565b9050610ab88360600151600661045c8660800151600761045c8960400151600561045c8c60200151600461045c8f6000015160038f610ee89092919063ffffffff16565b9150505b92915050565b610ace33610547610d04565b8073ffffffffffffffffffffffffffffffffffffffff16610aed610bc7565b73ffffffffffffffffffffffffffffffffffffffff167f73a2cb0569218bcefc78516c493d730dff015e558df1c4793c67d08d4a33befb60405160405180910390a3600280547fffffffffffffffffffffffff00000000000000000000000000000000000000001673ffffffffffffffffffffffffffffffffffffffff92909216919091179055565b7f000000000000000000000000000000000000000000000000000000000000000090565b60006103c17f00000000000000000000000000000000000000000000000000000000000000006001610ede565b60025473ffffffffffffffffffffffffffffffffffffffff1690565b600354610cbd9073ffffffffffffffffffffffffffffffffffffffff16158015610cb557503073ffffffffffffffffffffffffffffffffffffffff168273ffffffffffffffffffffffffffffffffffffffff1663893d20e86040518163ffffffff1660e01b815260040160206040518083038186803b158015610c6557600080fd5b505afa158015610c79573d6000803e3d6000fd5b505050506040513d601f19601f82011682018060405250810190610c9d9190611150565b73ffffffffffffffffffffffffffffffffffffffff16145b610156610f38565b600380547fffffffffffffffffffffffff00000000000000000000000000000000000000001673ffffffffffffffffffffffffffffffffffffffff92909216919091179055565b60005473ffffffffffffffffffffffffffffffffffffffff1690565b60006103c17f00000000000000000000000000000000000000000000000000000000000000006005610ede565b60006103c17f00000000000000000000000000000000000000000000000000000000000000006006610ede565b60006103c17f000000000000000000000000000000000000000000000000000000000000000082610ede565b610db233610547610d04565b610dba610f0f565b610dc561047d610394565b6003546040517fe01af92c00000000000000000000000000000000000000000000000000000000815273ffffffffffffffffffffffffffffffffffffffff9091169063e01af92c906105069084906004016113fe565b610e2733610547610d04565b610e3261047d610d7a565b600180547fffffffffffffffffffffffff00000000000000000000000000000000000000001673ffffffffffffffffffffffffffffffffffffffff92909216919091179055565b610e8533610547610d04565b610e9061047d6103c6565b8051610ea3906004906020840190610fb7565b507f09f579b21815d3f81581d32e97736ccba1cc89d1918e48da28e6e206acd9686481604051610ed39190611412565b60405180910390a150565b1c60019081161490565b60006001821b1984168284610efe576000610f01565b60015b60ff16901b17949350505050565b600354610f369073ffffffffffffffffffffffffffffffffffffffff161515610159610f38565b565b81610f4657610f4681610f4a565b5050565b7f08c379a0000000000000000000000000000000000000000000000000000000006000908152602060045260076024526642414c23000030600a808404818106603090810160081b95839006959095019082900491820690940160101b939093010160c81b604452606490fd5b828054600181600116156101000203166002900490600052602060002090601f016020900481019282601f10610ff857805160ff1916838001178555611025565b82800160010185558215611025579182015b8281111561102557825182559160200191906001019061100a565b50611031929150611035565b5090565b5b808211156110315760008155600101611036565b80358015158114610abc57600080fd5b600082601f83011261106a578081fd5b813567ffffffffffffffff811115611080578182fd5b6110b160207fffffffffffffffffffffffffffffffffffffffffffffffffffffffffffffffe0601f840116016114bd565b91508082528360208285010111156110c857600080fd5b8060208401602084013760009082016020015292915050565b6000606082840312156110f2578081fd5b6110fc60606114bd565b9050611108838361104a565b8152611117836020840161104a565b6020820152611129836040840161104a565b604082015292915050565b600060208284031215611145578081fd5b8135610463816114e4565b600060208284031215611161578081fd5b8151610463816114e4565b60006020828403121561117d578081fd5b610463838361104a565b600060208284031215611198578081fd5b813567ffffffffffffffff8111156111ae578182fd5b610ab88482850161105a565b600080604083850312156111cc578081fd5b82356111d7816114e4565b9150602083013567ffffffffffffffff8111156111f2578182fd5b6111fe8582860161105a565b9150509250929050565b600060608284031215611219578081fd5b61046383836110e1565b600080828403610100811215611237578283fd5b61124185856110e1565b925060a07fffffffffffffffffffffffffffffffffffffffffffffffffffffffffffffffa082011215611272578182fd5b5061127d60a06114bd565b61128a856060860161104a565b8152611299856080860161104a565b60208201526112ab8560a0860161104a565b60408201526112bd8560c0860161104a565b60608201526112cf8560e0860161104a565b6080820152809150509250929050565b6000602082840312156112f0578081fd5b5035919050565b6000806000806060858703121561130c578182fd5b8435935060208501359250604085013567ffffffffffffffff80821115611331578384fd5b818701915087601f830112611344578384fd5b813581811115611352578485fd5b8860208083028501011115611365578485fd5b95989497505060200194505050565b60008151808452815b818110156113995760208185018101518683018201520161137d565b818111156113aa5782602083870101525b50601f017fffffffffffffffffffffffffffffffffffffffffffffffffffffffffffffffe0169290920160200192915050565b73ffffffffffffffffffffffffffffffffffffffff91909116815260200190565b901515815260200190565b90815260200190565b6000602082526104636020830184611374565b600073ffffffffffffffffffffffffffffffffffffffff84168252604060208301526114546040830184611374565b949350505050565b6000858252846020830152606060408301528260608301527f07ffffffffffffffffffffffffffffffffffffffffffffffffffffffffffffff8311156114a0578081fd5b602083028085608085013791909101608001908152949350505050565b60405181810167ffffffffffffffff811182821017156114dc57600080fd5b604052919050565b73ffffffffffffffffffffffffffffffffffffffff8116811461150657600080fd5b5056fea2646970667358221220e9e5447a5089da70e61e8a2b19575f4467e7a8efca293e2a1c5c908d5a3d1fe364736f6c63430007010033a26469706673582212205d9018936959e66ce40e96acfb5ef9e195ca718a6c96645830b57546bd387d8464736f6c63430007010033"
}