{
  "address": "0xFa60a31d9a684795af7E8c2F5E35eC1C5fA5a84B",
  "abi": [
    {
      "inputs": [
        {
          "internalType": "uint8",
          "name": "tokenCount",
          "type": "uint8"
        }
      ],
      "stateMutability": "nonpayable",
      "type": "constructor"
    },
    {
      "inputs": [],
      "name": "ANY_AMOUNT",
      "outputs": [
        {
          "internalType": "uint256",
          "name": "",
          "type": "uint256"
        }
      ],
      "stateMutability": "view",
      "type": "function"
    },
    {
      "inputs": [],
      "name": "allowance",
      "outputs": [
        {
          "internalType": "uint256[]",
          "name": "amounts",
          "type": "uint256[]"
        }
      ],
      "stateMutability": "view",
      "type": "function"
    },
    {
      "inputs": [],
      "name": "count",
      "outputs": [
        {
          "internalType": "uint8",
          "name": "",
          "type": "uint8"
        }
      ],
      "stateMutability": "view",
      "type": "function"
    },
    {
      "inputs": [
        {
          "internalType": "bytes4",
          "name": "interfaceId",
          "type": "bytes4"
        }
      ],
      "name": "supportsInterface",
      "outputs": [
        {
          "internalType": "bool",
          "name": "",
          "type": "bool"
        }
      ],
      "stateMutability": "view",
      "type": "function"
    }
  ],
  "transactionHash": "0x0ca53efefb0418ba47ed73bd5657845261e954eb99ea8ae386b7242017046b6a",
  "args": [
    "2"
  ],
  "bytecode": "0x60a060405234801561001057600080fd5b5060405161036f38038061036f83398101604081905261002f9161003a565b60ff16608052610064565b60006020828403121561004c57600080fd5b815160ff8116811461005d57600080fd5b9392505050565b6080516102e361008c60003960008181607e01528181610119015261018401526102e36000f3fe608060405234801561001057600080fd5b506004361061004c5760003560e01c806301ffc9a71461005157806306661abd14610079578063b666bc5a146100b2578063de242ff4146100c9575b600080fd5b61006461005f3660046101e3565b6100de565b60405190151581526020015b60405180910390f35b6100a07f000000000000000000000000000000000000000000000000000000000000000081565b60405160ff9091168152602001610070565b6100bb60001981565b604051908152602001610070565b6100d1610115565b6040516100709190610214565b60006001600160e01b031982166337890bfd60e21b148061010f57506301ffc9a760e01b6001600160e01b03198316145b92915050565b60607f000000000000000000000000000000000000000000000000000000000000000060ff1667ffffffffffffffff81111561015357610153610258565b60405190808252806020026020018201604052801561017c578160200160208202803683370190505b50905060005b7f000000000000000000000000000000000000000000000000000000000000000060ff168110156101df576000198282815181106101c2576101c261026e565b6020908102919091010152806101d781610284565b915050610182565b5090565b6000602082840312156101f557600080fd5b81356001600160e01b03198116811461020d57600080fd5b9392505050565b6020808252825182820181905260009190848201906040850190845b8181101561024c57835183529284019291840191600101610230565b50909695505050505050565b634e487b7160e01b600052604160045260246000fd5b634e487b7160e01b600052603260045260246000fd5b60006000198214156102a657634e487b7160e01b600052601160045260246000fd5b506001019056fea26469706673582212204e332f7abe2f742e2e13a8afda9df5c13a109eeb35777891552aef2b09503b4d64736f6c634300080b0033"
}